:100000000C9474000C94DE060C9405070C949C0070
:100010000C949C000C949C000C949C000C949C00F0
:100020000C949C000C949C000C949C000C94B200CA
:100030000C949C000C949C000C949C000C949C00D0
:100040000C942C070C949C000C9447050C94790597
:100050000C949C000C949C000C949C000C949C00B0
:100060000C94C50F0C949C000000000800020100D5
:100070000003040700000000000000000102040863
:100080001020408001020408102001020408102002
:10009000040404040404040402020202020203032E
:1000A0000303030300000000250028002B000000CC
:1000B0000000240027002A004572724A616E4665DE
:1000C000624D61724170724D61794A756E4A756C0C
:1000D0004175675365704F63744E6F764465630076
:1000E000F8039F05B908CC0E11241FBECFEFD8E04E
:1000F000DEBFCDBF11E0A0E0B1E0ECEDF2E202C066
:1001000005900D92A638B107D9F723E0A6E8B1E033
:1001100001C01D92A033B207E1F710E0C4E7D0E0C0
:1001200004C02197FE010E945E11C037D107C9F7B4
:100130000E9445030C946C110C94000081E08093A4
:10014000B2010895CF93DF93EC01FB012481358147
:1001500040815181628173810E947506CE01DF91D9
:10016000CF9108951F920F920FB60F9211242F93E3
:100170008F939F938FE298EF9093850080938400F4
:100180008091B0019091B101843F914050F08091F5
:10019000AF018F5F8093AF011092B1011092B00157
:1001A00009C08091B0019091B10101969093B10185
:1001B0008093B0019F918F912F910F900FBE0F9060
:1001C0001F901895EF92FF920F931F93CF93DF9399
:1001D000CDB7DEB727970FB6F894DEBF0FBECDBF01
:1001E0005E83F22EE42E89E0841718F46EE471E049
:1001F00002C065E071E083EB91E00E940B064AE0EB
:1002000050E06E2D83EB91E00E946E0660E283EB7E
:1002100091E00E940D068E810E948E0BBC0183EB43
:1002200091E00E940B0660E283EB91E00E940D06D4
:1002300089E08F1518F46EE471E002C065E071E0AA
:1002400083EB91E00E940B064AE050E06F2D83EBB8
:1002500091E00E946E066AE383EB91E00E940D0636
:100260001A3018F06EE471E002C065E071E083EBD3
:1002700091E00E940B064AE050E0612F83EB91E091
:100280000E946E066AE383EB91E00E940D060A303D
:1002900018F06EE471E002C065E071E083EB91E07C
:1002A0000E940B064AE050E0602F83EB91E00E9431
:1002B0006E0683EB91E027960FB6F894DEBF0FBE73
:1002C000CDBFDF91CF911F910F91FF90EF900C94D4
:1002D0001406CF92DF92EF92FF920F931F93CF936A
:1002E000DF9300D000D000D0CDB7DEB76A017B012C
:1002F000CB01BA010E94C20C092E000CAA0BBB0B49
:1003000089839A83AB83BC838AE090E09E838D834C
:10031000C701B6010E94C20C0A971CF06EE471E09E
:1003200002C065E071E083EB91E00E940B06BE0124
:100330006F5F7F4F83EB91E00E94A20060E20E941A
:100340000D06C701B6010E94CE0C092E000CAA0BA7
:10035000BB0B89839A83AB83BC830AE010E01E83C6
:100360000D83C701B6010E94C80C0E948E0BBC0110
:1003700083EB91E00E940B0667E171E083EB91E073
:100380000E940B06BE016F5F7F4F83EB91E00E94DE
:10039000A20060E20E940D06C701B6010E94B00CE7
:1003A000092E000CAA0BBB0B89839A83AB83BC83F9
:1003B0001E830D83C701B6010E94B00C0A971CF082
:1003C0006EE471E002C065E071E083EB91E00E94B1
:1003D0000B06BE016F5F7F4F83EB91E00E94A2008E
:1003E0006AE30E940D06C701B6010E94B60C092EF1
:1003F000000CAA0BBB0B89839A83AB83BC838AE076
:1004000090E09E838D83C701B6010E94B60C0A97C7
:100410001CF06EE471E002C065E071E083EB91E0F6
:100420000E940B06BE016F5F7F4F83EB91E00E943D
:10043000A2006AE30E940D06C701B6010E94BC0C2F
:10044000092E000CAA0BBB0B89839A83AB83BC8358
:100450008AE090E09E838D83C701B6010E94BC0CA8
:100460000A971CF06EE471E002C065E071E083EB76
:1004700091E00E940B06BE016F5F7F4F83EB91E01E
:100480000E94A20026960FB6F894DEBF0FBECDBF25
:10049000DF91CF911F910F91FF90EF90DF90CF9060
:1004A00008959F92AF92BF92CF92DF92EF92FF9208
:1004B0000F931F93CF93DF93CDB7DEB727970FB678
:1004C000F894DEBF0FBECDBF6A017B01CB01BA013C
:1004D0000E94CE0C182FC701B6010E94C20CB82E84
:1004E000C701B6010E94C80C082FC701B6010E94BF
:1004F000B00CA82EC701B6010E94B60C982EC701F9
:10050000B6010E94BC0C5C81282F392D4A2D6B2D21
:10051000702F812F90E027960FB6F894DEBF0FBEA4
:10052000CDBFDF91CF911F910F91FF90EF90DF90A2
:10053000CF90BF90AF909F900895EF92FF920F934E
:100540001F93CF93DF93EC0152985A9A42E050E008
:100550006EE970E080E00E94BE0664E089E592E00A
:100560000E94F70961E089E592E00E94D70941E025
:1005700061E089E592E00E94B60962E089E592E0D7
:100580000E94D70941E062E089E592E00E94B60945
:100590000091AE0110E07E0187E0E80EF11C0C1B1B
:1005A0001D0BC8018C0F9D1F0E9464118993CE15ED
:1005B000DF05B9F70091000110E0C0E0D0E0CE0106
:1005C000800F911F0E946411F70181937F01219692
:1005D000C730D105A1F7DF91CF911F910F91FF9007
:1005E000EF900895CF93DF938091B2018823B1F00B
:1005F000EB0161E089E592E00E94D709882311F0C0
:1006000081E008C062E089E592E00E94D709882372
:1006100011F082E088831092B20102C0FB011082C7
:10062000DF91CF9108958AB1806F8AB98BB18F70B5
:100630008BB9F89410928000E1E8F0E010821092FB
:1006400085001092840080E89EE390938900809357
:100650008800808188608083808181608083EFE66C
:10066000F0E080818260808378940895613029F081
:10067000623039F45C9A5D9A02C05C9A5D985E9A29
:1006800008955C985D985E980895CF93DF93CDB7F9
:10069000DEB728970FB6F894DEBF0FBECDBF0E941D
:1006A000E20726E040E855E260E070E083EB91E08D
:1006B0000E94DE0420E042E060E186E891E00E94D2
:1006C000C30A8FE991E00E949D028EE991E00E94A9
:1006D0001303188667E071E083EB91E00E940B063C
:1006E0000E944F09AB01BC018DEA91E00E946901B3
:1006F00083EB91E00E94140669E171E086E891E0E5
:100700000E940B060E944F09AB01BC018DEA91E0EB
:100710000E94510229833A834B835C836D837E83DD
:100720008F8389019A01AB01682F8DEA91E00E94C5
:10073000E20086E891E00E94B40A6091AF014AE0CD
:1007400050E086E891E00E946E06BE01685F7F4F30
:100750008FE991E00E94F2028885813009F18230B0
:1007600009F03FC00E944F09AB01BC018DEA91E046
:100770000E94690186E891E00E94B40A6CE271E08F
:1007800086E891E00E940B066CE271E083EB91E059
:100790000E940B0683EB91E00E94140662E01DC0EC
:1007A0000E944F09AB01BC018DEA91E00E946901F2
:1007B00086E891E00E94B40A6EE171E086E891E07B
:1007C0000E940B066EE171E083EB91E00E940B0644
:1007D00083EB91E00E94140661E08EE991E00E94B3
:1007E000360364E670E080E090E00E949B07A1CFB2
:1007F000CF92EF920F931092AD01EFE9F1E01082EA
:1008000011821282138217821086118612868BE063
:10081000C82E9AE0E92E09E028E04CE06DE086E879
:1008200091E00E94680B0F91EF90CF900895FC012A
:10083000918D228D892F90E0805C9F4F821B9109C2
:100840008F7399270895FC01918D828D981731F04F
:10085000828DE80FF11D858D90E008958FEF9FEF59
:100860000895FC01918D828D981761F0828DDF01D2
:10087000A80FB11D5D968C91928D9F5F9F73928F93
:1008800090E008958FEF9FEF0895FC01538D448D04
:10089000252F30E0842F90E0821B930B541710F02B
:1008A000CF96089501970895FC01848DDF01A80F6C
:1008B000B11DA35ABF4F2C91848D90E001968F7388
:1008C0009927848FA689B7892C93A089B1898C91A7
:1008D00080648C93938D848D981306C00288F3896D
:1008E000E02D80818F7D80830895EF92FF920F939A
:1008F0001F93CF93DF93EC0181E0888F9B8D8C8DCC
:10090000981305C0E889F989808185FD24C0F62EF9
:100910000B8D10E00F5F1F4F0F731127E02E8C8D92
:10092000E8120CC00FB607FCFACFE889F98980817C
:1009300085FFF5CFCE010E945404F1CF8B8DFE01CF
:10094000E80FF11DE35AFF4FF0820B8FEA89FB8914
:100950008081806207C0EE89FF896083E889F98918
:1009600080818064808381E090E0DF91CF911F914E
:100970000F91FF90EF900895CF93DF93EC01888D56
:100980008823C9F0EA89FB89808185FD05C0A88993
:10099000B9898C9186FD0FC00FB607FCF5CF808119
:1009A00085FFF2CFA889B9898C9185FFEDCFCE0163
:1009B0000E945404E7CFDF91CF910895CF92DF9248
:1009C000EF92FF921F93CF93DF93EC016A017B01BB
:1009D000122FE889F98982E080834115514E610523
:1009E0007105B1F060E079E08DE390E0A701960138
:1009F0000E940611DA01C9010197A109B109B69552
:100A0000A795979587959C01211580E13807A8F057
:100A1000E889F989108260E874E88EE190E0A70126
:100A200096010E940611DA01C9010197A109B109D5
:100A3000B695A795979587959C01EC85FD853083A4
:100A4000EE85FF852083188EEC89FD891083EA8965
:100A5000FB89808180618083EA89FB89808188604D
:100A60008083EA89FB89808180688083EA89FB89A9
:100A700080818F7D8083DF91CF911F91FF90EF90D8
:100A8000DF90CF90089580E090E0089508951F9240
:100A90000F920FB60F9211242F938F939F93EF9382
:100AA000FF93E091C301F091C4018081E091C901FD
:100AB000F091CA0182FD12C090818091CC018F5FBC
:100AC0008F732091CD01821751F0E091CC01F0E0BD
:100AD000ED54FE4F958F8093CC0101C08081FF9132
:100AE000EF919F918F912F910F900FBE0F901F90BC
:100AF00018951F920F920FB60F9211242F933F93C8
:100B00004F935F936F937F938F939F93AF93BF9315
:100B1000EF93FF9383EB91E00E945404FF91EF91D8
:100B2000BF91AF919F918F917F916F915F914F9105
:100B30003F912F910F900FBE0F901F901895E3EBF0
:100B4000F1E01382128288EE93E0A0E0B0E08483AB
:100B50009583A683B7838EE391E09183808385ECB0
:100B600090E09587848784EC90E09787868780EC77
:100B700090E0918B808B81EC90E0938B828B82EC68
:100B800090E0958B848B86EC90E0978B868B118E12
:100B9000128E138E148E0895CF92DF92EF92FF92F1
:100BA0000F931F93CF93DF936C017A018B01C0E009
:100BB000D0E0CE15DF0581F0D8016D918D01D60111
:100BC000ED91FC910190F081E02DC6010995892BF2
:100BD00011F02196EECF7E01C701DF91CF911F91D9
:100BE0000F91FF90EF90DF90CF9008956115710500
:100BF00079F0FB0101900020E9F73197AF01461B26
:100C0000570BDC01ED91FC910280F381E02D0994FA
:100C100080E090E008950C94F605DC01ED91FC91E4
:100C20000190F081E02D09946CE471E00C94F605DC
:100C30008F929F92AF92BF92EF92FF920F931F936A
:100C4000CF93DF93CDB7DEB7A1970FB6F894DEBF91
:100C50000FBECDBF7C01FA01CB0119A2223008F4EE
:100C60002AE08E010F5D1F4F822E912CA12CB12CFA
:100C7000BF01A50194010E940611F901CA010150AA
:100C800011096A3010F4605D01C0695CD8016C9391
:100C9000232B242B252B61F7B801C7010E94F605F1
:100CA000A1960FB6F894DEBF0FBECDBFDF91CF91F6
:100CB0001F910F91FF90EF90BF90AF909F908F90FA
:100CC00008952115310541F4DC01ED91FC9101906D
:100CD000F081E02D642F09940C9418069A01462F98
:100CE00050E060E070E00C946106CF92DF92EF92EA
:100CF000FF920F931F93CF93DF932115310581F45A
:100D0000DC01ED91FC910190F081E02D642FDF91E9
:100D1000CF911F910F91FF90EF90DF90CF900994AA
:100D20002A30310501F577FF1DC06A017B01EC0116
:100D30006DE20E940D068C0144275527BA014C191B
:100D40005D096E097F092AE0CE010E941806800F16
:100D5000911FDF91CF911F910F91FF90EF90DF9046
:100D6000CF9008952AE0DF91CF911F910F91FF90CE
:100D7000EF90DF90CF900C94180608958230E8F43D
:100D8000E82FF0E0EE0FFF1FEF5FFE4F71836083EF
:100D9000813041F0809169008C7F482B409369003D
:100DA000E89A089580916900837F440F551F440F8E
:100DB000551F482B40936900E99A08951F920F929E
:100DC0000FB60F9211242F933F934F935F936F931E
:100DD0007F938F939F93AF93BF93EF93FF93E09194
:100DE0000101F09102010995FF91EF91BF91AF913F
:100DF0009F918F917F916F915F914F913F912F9133
:100E00000F900FBE0F901F9018951F920F920FB664
:100E10000F9211242F933F934F935F936F937F9380
:100E20008F939F93AF93BF93EF93FF93E091030151
:100E3000F09104010995FF91EF91BF91AF919F91BE
:100E40008F917F916F915F914F913F912F910F9073
:100E50000FBE0F901F9018951F920F920FB60F9212
:100E600011242F933F938F939F93AF93BF938091C0
:100E7000510290915202A0915302B09154023091CC
:100E8000500223E0230F2D3720F40196A11DB11D40
:100E900005C026E8230F0296A11DB11D2093500224
:100EA0008093510290935202A0935302B093540244
:100EB0008091550290915602A0915702B09158022C
:100EC0000196A11DB11D8093550290935602A093E7
:100ED0005702B0935802BF91AF919F918F913F916C
:100EE0002F910F900FBE0F901F9018953FB7F89459
:100EF0008091550290915602A0915702B0915802EC
:100F000026B5A89B05C02F3F19F00196A11DB11D64
:100F10003FBFBA2FA92F982F8827820F911DA11D9F
:100F2000B11DBC01CD0142E0660F771F881F991FDC
:100F30004A95D1F708958F929F92AF92BF92CF9228
:100F4000DF92EF92FF926B017C010E9476074B01CA
:100F50005C01C114D104E104F10401F10E94D00E3E
:100F60000E947607DC01CB0188199909AA09BB09FF
:100F7000883E9340A105B10560F321E0C21AD10873
:100F8000E108F10888EE880E83E0981EA11CB11CD0
:100F9000C114D104E104F10419F7DBCFFF90EF9005
:100FA000DF90CF90BF90AF909F908F900895823048
:100FB000910538F0880F991F880F991F05970197A1
:100FC000F1F70895789484B5826084BD84B581601A
:100FD00084BD85B5826085BD85B5816085BDEEE641
:100FE000F0E0808181608083E1E8F0E01082808120
:100FF00082608083808181608083E0E8F0E080818E
:1010000081608083E1EBF0E0808184608083E0EBAD
:10101000F0E0808181608083EAE7F0E08081846095
:1010200080838081826080838081816080838081F1
:10103000806880831092C1000895833081F028F485
:10104000813099F08230A1F008958730A9F088307E
:10105000B9F08430D1F4809180008F7D03C08091FD
:1010600080008F7780938000089584B58F7702C0C9
:1010700084B58F7D84BD08958091B0008F7703C0C3
:101080008091B0008F7D8093B0000895CF93DF935F
:1010900090E0FC01E458FF4F2491FC01E057FF4F22
:1010A0008491882361F190E0880F991FFC01E2553B
:1010B000FF4FC591D491FC01EC55FF4FA591B49120
:1010C000611109C09FB7F894888120958223888395
:1010D000EC912E230BC0623061F49FB7F8948881A5
:1010E000322F309583238883EC912E2B2C939FBF36
:1010F00006C08FB7F894E8812E2B28838FBFDF912D
:10110000CF9108951F93CF93DF93282F30E0F901FB
:10111000E859FF4F8491F901E458FF4FD491F90148
:10112000E057FF4FC491CC23C1F0162F81110E94CC
:101130001D08EC2FF0E0EE0FFF1FEC55FF4FA591BF
:10114000B4919FB7F894111104C08C91D095D82315
:1011500002C0EC91DE2BDC939FBFDF91CF911F91FA
:101160000895982F92959F702AEF929F800D1124D9
:10117000089580E792E00C94360EFF920F931F9330
:10118000CF93DF93C62FF42E052F122F68E670E061
:1011900080E792E00E944A0E6C2F80E792E00E9466
:1011A000F70DCF2DD02FCE01810F911D8C01C017CF
:1011B000D10731F0699180E792E00E94F70DF7CFF7
:1011C00080E792E0DF91CF911F910F91FF900C94F7
:1011D000C90ECF93DF931F92CDB7DEB7498321E0CD
:1011E000AE014F5F5F4F0E94BD080F90DF91CF911E
:1011F0000895CF93DF93EC0168E670E080E792E01A
:101200000E944A0E60E080E792E00E94F70D80E7BE
:1012100092E00E94C90E882319F080935A023CC0C4
:1012200047E050E068E670E080E792E00E94C60E7A
:1012300080E792E00E94A60D8F770E94B108888314
:1012400080E792E00E94A60D0E94B108898380E7A2
:1012500092E00E94A60D8F7B0E94B1088A8380E7EE
:1012600092E00E94A60D8B8380E792E00E94A60D7B
:101270000E94B1088C8380E792E00E94A60D8F77D0
:101280000E94B1088D8380E792E00E94A60D0E9423
:10129000B108825E8E8380E0DF91CF910895CF9375
:1012A000DF93CDB7DEB727970FB6F894DEBF0FBE3A
:1012B000CDBFCE0101960E94F908811105C0CE0173
:1012C00001960E94D60C03C060E070E0CB01279627
:1012D0000FB6F894DEBF0FBECDBFDF91CF9108955A
:1012E000FF920F931F93CF93DF93C62FF42E052FFA
:1012F000122F68E670E080E792E00E944A0E6C2FA1
:1013000080E792E00E94F70D80E792E00E94C90E0C
:10131000811116C0412F68E680E792E00E94C30E5B
:10132000CF2DD02FCE01810F911D8C01C017D10779
:1013300031F080E792E00E94A60D8993F7CF80E01C
:10134000DF91CF911F910F91FF900895CF93DF937D
:101350001F92CDB7DEB721E0AE014F5F5F4F0E9415
:10136000700989810F90DF91CF9108950F931F939A
:10137000CF93DF938C01C62FD42F6EE00E94A60975
:10138000C15021E030E001C0220FCA95EAF7DD2309
:1013900019F0482F422B03C02095422F48236EE0BE
:1013A000C801DF91CF911F910F910C94E9080F9321
:1013B0001F93CF938C01C62F6FE00E94A609C150E6
:1013C00021E030E001C0220FCA95EAF7982F92235E
:1013D00049F02095422F48236FE0C8010E94E90898
:1013E00081E001C080E0CF911F910F9108950F938C
:1013F0001F93CF938C01C62F6EE00E94A609482F41
:10140000C43010F0446006C0437E88E0C89FB0013D
:101410001124462B6EE0C801CF911F910F910C94BF
:10142000E908CF93DF93EC0160E08E810E9482088F
:1014300081E090E00E94D70761E08E810E948208DF
:1014400081E090E00E94D70760E08E810E948208D0
:1014500084E690E0DF91CF910C94D707CF92DF9292
:10146000EF92FF920F931F93CF93DF936C017C0158
:1014700087E0E80EF11CC0E0D0E0062F10E0B801D4
:101480000C2E02C0759567950A94E2F76170F7011A
:1014900081917F010E9482082196C430D10579F79D
:1014A000C601DF91CF911F910F91FF90EF90DF90D8
:1014B000CF900C94110ACF92DF92EF92FF920F938C
:1014C0001F93CF93DF936C017C0187E0E80EF11C42
:1014D000C0E0D0E0062F10E0B8010C2E02C07595D8
:1014E00067950A94E2F76170F70181917F010E948C
:1014F00082082196C830D10579F7C601DF91CF91D6
:101500001F910F91FF90EF90DF90CF900C94110AF4
:101510001F93CF93DF93EC01162F642F8C810E94D1
:1015200082088D818F3F19F060E00E9482088F85CC
:10153000612F84FF06C0CE01DF91CF911F910C94E3
:101540005B0A70E084E0759567958A95E1F7CE01B6
:101550000E942E0A612FCE01DF91CF911F910C9432
:101560002E0A40E00C94880A61E00E94B10A80EDE6
:1015700097E00C94D707FC016089262F2460208B0C
:101580006C600C94B10AEF92FF920F931F93CF936C
:10159000DF93EC01423018F08F8588608F874B8B8A
:1015A0001C8A80E48D8B6E8B70E0605C7F4F6F8B4C
:1015B000222329F0413019F48F8584608F8761E000
:1015C0008C810E9446088D818F3F19F061E00E9456
:1015D000460861E08E810E9446087E0187E0E80EA1
:1015E000F11C00E010E08F8584FD03C084E090E0F2
:1015F00002C088E090E0081719074CF461E0F70199
:1016000081917F010E9446080F5F1F4FECCF80E55C
:1016100093EC0E94D70760E08C810E94820860E012
:101620008E810E9482088D818F3F19F060E00E94B8
:1016300082086F8564FD1DC063E0CE010E942E0A02
:1016400084E991E10E94D70763E0CE010E942E0A4F
:1016500084E991E10E94D70763E0CE010E942E0A3F
:1016600086E990E00E94D70762E0CE010E942E0A30
:1016700016C06062CE010E94B10A84E991E10E9425
:10168000D7076F856062CE010E94B10A86E990E0BB
:101690000E94D7076F856062CE010E94B10A6F85F4
:1016A0006062CE010E94B10A84E0888BCE010E9464
:1016B000BB0ACE010E94B40A82E0898B66E0CE01AB
:1016C000DF91CF911F910F91FF90EF900C94B10A91
:1016D000CF92EF920F93FC01138212828FE591E07B
:1016E0009183808364838FEF85834683278300877C
:1016F000E186C2861386148615861686178620E034
:1017000041E060E1CF010F91EF90CF900C94C30ABC
:1017100041E00E94880A81E090E0089523E0829FE2
:10172000C0011124ABE5B2E020E030E0FC01E20FA3
:10173000F31FE854FF4FE491ED932F5F3F4F2330A9
:101740003105A1F710925E028BE592E008956F9249
:101750007F928F929F92AF92BF92CF92DF92EF9241
:10176000FF920F931F93CF93DF936B017C01EA01EC
:101770008CE3882E912CA12CB12CC701B601A501B8
:1017800094010E9406116883CA01B901A501940160
:101790000E9406116983C701B60120E13EE040E0E6
:1017A00050E00E940611CA01B90128E130E040E092
:1017B00050E00E9406116A83C701B60120E831E5B6
:1017C00041E050E00E94061169017A01CA01B901A5
:1017D0006C5F7F4F8F4F9F4F27E030E040E050E03D
:1017E0000E9406116F5F6B83812C912C540140E0A5
:1017F00094E6692E712C00E911E0242F30E02E547C
:10180000384FF901E370FF27309789F4C901B3011C
:101810000E94F210892B31F4C901B8010E94F21024
:10182000892B29F48EE691E0A0E0B0E004C08DE6BB
:1018300091E0A0E0B0E0880E991EAA1EBB1ED50163
:10184000C401AA27BB27C816D906EA06FB0610F072
:101850004F5FD3CF4E83309799F4C90164E670E0AF
:101860000E94F210892B39F4C90160E971E00E94ED
:10187000F210892B29F48EE691E0A0E0B0E004C0DC
:101880008DE691E0A0E0B0E0881A990AAA0ABB0AA6
:10189000C818D908EA08FB08C90164E670E00E948C
:1018A000F2108C01C90160E971E00E94F210A7E614
:1018B000B1E020E0213041F4309751F401151105D9
:1018C00029F4009729F402C04C9103C04DE101C0F6
:1018D0004CE150E060E070E0C416D506E606F7067D
:1018E00040F0C41AD50AE60AF70A2F5F11962C3089
:1018F00009F72F5F2D83C394CC82DF91CF911F9185
:101900000F91FF90EF90DF90CF90BF90AF909F909E
:101910008F907F906F900895CF92DF92EF92FF9219
:10192000C0906502D0906602E0906702F090680275
:10193000C616D706E806F90671F06B017C0149E688
:1019400052E00E94A70BC0926502D0926602E0921C
:101950006702F0926802FF90EF90DF90CF900895B9
:101960000E948C0C80916B0290E008950E948C0C78
:1019700080916A0290E008950E948C0C8091690227
:1019800090E008950E948C0C80916D0290E0089583
:101990000E948C0C80916E0290E008950E948C0C45
:1019A00080916F0290E08E54984F08954F925F920D
:1019B0006F927F928F929F92AF92BF92CF92DF925F
:1019C000EF92FF920F931F93CF93DF93FC01168149
:1019D000A12FB0E020E833E341EE51E00E9437113F
:1019E0004B015C01C2EBD7E09D0104E610E080E909
:1019F000E82EFF24F394CE01825B97408217930771
:101A0000D4F4CE0183709927892B99F4CE01B801C3
:101A10000E94F210892B31F4CE01B7010E94F2101E
:101A2000892B39F480E8880E81E5981E81E0A81E94
:101A3000B11C2196E0CF4580512C2E54384FC9015E
:101A400064E670E00E94F2107C01C90160E971E077
:101A50000E94F2106C0107E611E0C1E0D0E039010C
:101A6000A3E06A227724C415D50534F5C230D10528
:101A700089F46114710471F4E114F10419F4C114CE
:101A8000D10441F4B0E88B0EBBE39B1EB6E2AB1E63
:101A9000B11C0EC0D8018C91A82FB0E020E831E530
:101AA00041E050E00E943711860E971EA81EB91E15
:101AB00021960F5F1F4FD7CF4181228130E0A0E1F7
:101AC000BEE00E9428116B017C01242F30E0ACE3C2
:101AD000B0E00E942811DC01CB018C0D9D1DAE1DD4
:101AE000BF1D20816C017D01C20ED11CE11CF11CC7
:101AF000A481B0E0119720E831E541E050E00E9478
:101B00004211DC01CB018C0D9D1DAE1DBF1DBC0122
:101B1000CD01680D791D8A1D9B1DDF91CF911F910D
:101B20000F91FF90EF90DF90CF90BF90AF909F907C
:101B30008F907F906F905F904F9008958091A0025A
:101B400090E02091A102821B910908959091A10239
:101B50008091A002981750F4E92FF0E0EE55FD4F68
:101B6000208130E09F5F9093A10202C02FEF3FEFF2
:101B7000C9010895E091A1028091A002E81730F414
:101B8000F0E0EE55FD4F808190E008958FEF9FEFDC
:101B900008950895CF92DF92EF92FF920F931F93D3
:101BA000CF93DF937C01CB018A0120917C02222319
:101BB00089F0EB016B01C40ED51ECC15DD0569F073
:101BC0006991D701ED91FC910190F081E02DC70161
:101BD0000995F3CF642F0E948D0FC801DF91CF913B
:101BE0001F910F91FF90EF90DF90CF900895CF93CA
:101BF000DF931F92CDB7DEB7698320917C02222349
:101C0000D1F020917D02203240F021E030E0FC0153
:101C10003383228380E090E015C080917E02E82F1C
:101C2000F0E0E158FD4F998190838F5F80937E02B1
:101C300080937D0205C061E0CE0101960E948D0F68
:101C400081E090E00F90DF91CF910895FC01138225
:101C5000128288EE93E0A0E0B0E084839583A683AF
:101C6000B78387E791E09183808308951092A10262
:101C70001092A00210927E0210927D020C94D10E5E
:101C800081E080937C0260939F0210927E0210920A
:101C90007D0208950C94400E0F93062F21E0409191
:101CA0007D026FE772E080919F020E94370F1092D1
:101CB0007E0210927D0210927C020F9108954F9245
:101CC0005F926F927F92AF92BF92CF92EF92FF920C
:101CD0000F931F93CF93DF935C01F62ED42F28012F
:101CE0003901EE2021F10E94400ECE2DC43008F0C3
:101CF000C3E0C150C0F028E0C29FC0011124A3017D
:101D0000920104C056954795379527958A95D2F745
:101D1000CA01B901D501ED91FC910190F081E02D4E
:101D2000C5010995E6CF60E0C5010E944C0E4D2F1C
:101D3000D13208F040E22C2D62EA72E08F2D0E9431
:101D4000EF0E1092A1028093A002DF91CF911F911C
:101D50000F91FF90EF90CF90BF90AF907F906F90DA
:101D60005F904F900895CF92EF920F931F93C22EE2
:101D7000E12C00E010E098010E945F0E1F910F918E
:101D8000EF90CF90089521E00C94B30E21E00C94D5
:101D9000B30E61E00C944C0E80E792E00C94260E9A
:101DA000089510922F0381E080932D0310922C034D
:101DB00061E082E10E94820861E083E10E94820882
:101DC000E9EBF0E080818E7F808380818D7F80834E
:101DD00088E48093B80085E48093BC000895413284
:101DE00008F043C090912F039111FCCF91E09093A4
:101DF0002F0320932D032FEF2093C202109207038D
:101E0000240F2093060390932E0390912E03880FA6
:101E1000892B80932E0380912C03813061F41092E2
:101E20002C0380912E038093BB008091BC0083FD26
:101E3000F8CF85EC01C085EE8093BC0080912F0324
:101E40008130E1F380910703841710F44091070378
:101E5000A8E0B3E0962FFB018E2F891B841718F49E
:101E60008D918193F9CF842F089580E008950F9389
:101E7000413208F04AC090912F039111FCCF32E01B
:101E800030932F0300932D033FEF3093C202109243
:101E9000070340930603562FA8E0B3E0FB013E2F53
:101EA000351B341718F431913D93F9CF10922E035E
:101EB00030912E03880F832B80932E0380912C0367
:101EC000813061F410922C0380912E038093BB002B
:101ED0008091BC0083FDF8CF85EC01C085EE809336
:101EE000BC00222321F080912F038230D1F3809116
:101EF000C2028F3F79F08091C202803241F080911E
:101F0000C202803331F094E005C091E003C092E05A
:101F100001C093E0892F0F9108954091E402262F8C
:101F200030E0240F311D21323105DCF420912F03E4
:101F30002430C9F4FC0180E090E0861758F4309119
:101F4000E4022191DC01AA51BD4FA30FB11D2C93D6
:101F50000196F3CF8091E402680F6093E40280E081
:101F6000089581E0089582E0089585ED8093BC0096
:101F70008091BC0084FDFCCF10922F03089585EC66
:101F80008093BC0010922F0308951F920F920FB6FA
:101F90000F9211242F933F934F935F936F937F93EF
:101FA0008F939F93AF93BF93EF93FF938091B9006B
:101FB000887F803609F49EC078F5883209F45DC0C8
:101FC00090F4803109F456C038F4882309F4F5C040
:101FD000883009F44FC0F5C0883109F44EC0803212
:101FE00009F45FC0EEC0803409F46AC058F480334D
:101FF00009F457C0883309F0E4C08093C2020E94FC
:10200000BF0FDFC0803509F44FC0883509F45DC0CB
:10201000883409F0D6C0D3C0883909F4C4C0A8F404
:10202000883709F467C038F4883609F463C080370C
:1020300009F460C0C6C0883809F4B5C0803909F415
:102040005FC0803809F0BDC05BC0803B09F483C02D
:1020500038F4803A09F466C0883A09F47CC0B1C00B
:10206000803C09F4A4C0883C09F4A1C0883B09F471
:1020700087C0A7C080912E0310C090910703809164
:102080000603981770F5E091070381E08E0F8093A7
:102090000703F0E0E85FFC4F80818093BB0085EC94
:1020A00083C08093C2028BC0E091070381E08E0F52
:1020B000809307038091BB00F0E0E85FFC4F8083D2
:1020C00090910703809106036BC0E091070381E0C4
:1020D0008E0F809307038091BB00F0E0E85FFC4F18
:1020E000808380912D0381116AC081E080932C034D
:1020F00084EA5EC083E080932F031092C302CFCFA7
:102100008091C302803208F04EC0E091C30281E0AA
:102110008E0F8093C3028091BB00F0E0EC53FD4F23
:102120008083BDCF0E94BF0F8091C302803230F404
:10213000E091C302F0E0EC53FD4F10826091C302C6
:1021400070E0E0912803F091290384EC92E0099576
:102150001092C30236C084E080932F031092E502F0
:102160001092E402E0912A03F0912B0309958091EB
:10217000E402811105C081E08093E4021092E6023E
:10218000E091E50281E08E0F8093E502F0E0EA51F4
:10219000FD4F80818093BB009091E5028091E40225
:1021A000981708F47CCF85E88093BC000AC085ECC2
:1021B0008093BC0010922F0304C01092C2020E94B0
:1021C000B50FFF91EF91BF91AF919F918F917F914B
:1021D0006F915F914F913F912F910F900FBE0F9094
:1021E0001F90189597FB072E16F4009407D077FDE3
:1021F00009D00E944A1107FC05D03EF490958195C4
:102200009F4F0895709561957F4F0895A1E21A2E12
:10221000AA1BBB1BFD010DC0AA1FBB1FEE1FFF1F8A
:10222000A217B307E407F50720F0A21BB30BE40BDA
:10223000F50B661F771F881F991F1A9469F7609521
:102240007095809590959B01AC01BD01CF010895DB
:10225000A29FB001B39FC001A39F700D811D1124E7
:10226000911DB29F700D811D1124911D08950E9432
:102270002811A59F900DB49F900DA49F800D911DD6
:1022800011240895B7FF0C9437110E943711821B57
:10229000930B0895AA1BBB1B51E107C0AA1FBB1FCC
:1022A000A617B70710F0A61BB70B881F991F5A95E2
:1022B000A9F780959095BC01CD010895EE0FFF1F01
:1022C0000590F491E02D0994F999FECF92BD81BD5E
:0C22D000F89A992780B50895F894FFCF84
:1022DC0007BD06BD06300043757272656E742074BE
:1022EC00696D652069733A20005465737400202D64
:1022FC002D3E20416C61726D20312100202D2D3E30
:10230C0020416C61726D20322100000000007504C8
:10231C00CC054504BC041704310423040D0A006EDB
:10232C00616E00696E66006F7666000000000088C2
:10233C000BCC05430546051F1C1F1E1F1E1F1F1E11
:10234C001F1E1F00000000F70DCA0D4305C90D9E8E
:06235C000DA60DBA0D00F4
:00000001FF
