:100000000C946E000C948D040C94B4040C94960023
:100010000C9496000C9496000C9496000C94960008
:100020000C9496000C9496000C9496000C949600F8
:100030000C9496000C9496000C9496000C949600E8
:100040000C94DB040C9496000C94FC020C942E038C
:100050000C9496000C9496000C9496000C949600C8
:100060000C94430B0C9496004572724A616E46657F
:10007000624D61724170724D61794A756E4A756C5C
:100080004175675365704F63744E6F7644656300C6
:100090000000000800020100000304070000000047
:1000A0000000000001020408102040800102040842
:1000B00010200102040810200404040404040404B1
:1000C0000202020202020303030303030000000012
:1000D000250028002B00540368054B0A11241FBE7D
:1000E000CFEFD8E0DEBFCDBF11E0A0E0B1E0E2E9A4
:1000F000FAE102C005900D92A237B107D9F722E0CC
:10010000A2E7B1E001C01D92A03FB207E1F710E005
:10011000CEE6D0E004C02197FE010E94410DCB360F
:10012000D107C9F70E9460010C94470D0C940000A0
:1001300081E08093720108958F929F92AF92BF9257
:10014000CF92DF92EF92FF92CF93DF936B017C010E
:100150000E9446084C01990FAA08BB08C701B601C6
:100160000E9446080A971CF066E471E002C064E051
:1001700071E083E791E00E94C1032AE030E0B5011D
:10018000A40183E791E00E94220460E283E791E00A
:100190000E94C303C701B6010E945208EC01C701C7
:1001A000B6010E944C080E942607BC0183E791E03B
:1001B0000E94C10366E171E083E791E00E94C10300
:1001C000AE01DD0F660B770B2AE030E083E791E0AC
:1001D0000E94220460E283E791E00E94C303C7010A
:1001E000B6010E9434084C01990FAA08BB08C70148
:1001F000B6010E9434080A971CF066E471E002C060
:1002000064E071E083E791E00E94C1032AE030E0FE
:10021000B501A40183E791E00E9422046AE383E729
:1002200091E00E94C303C701B6010E943A084C0145
:10023000990FAA08BB08C701B6010E943A080A979D
:100240001CF066E471E002C064E071E083E791E0D5
:100250000E94C1032AE030E0B501A40183E791E0E8
:100260000E9422046AE383E791E00E94C303C7016E
:10027000B6010E9440084C01990FAA08BB08C701AB
:10028000B6010E9440080A971CF066E471E002C0C3
:1002900064E071E083E791E00E94C1032AE030E06E
:1002A000B501A40183E791E0DF91CF91FF90EF903A
:1002B000DF90CF90BF90AF909F908F900C942204CE
:1002C0000E94250526E040E855E260E070E083E703
:1002D00091E00E94970266E071E083E791E00E945E
:1002E000C1030E945D060E949C0083E791E00E948A
:1002F000CA0352985A9A42E050E068E970E080E000
:100300000E946D0464E089E192E00E940C07EE24F3
:10031000E39400E020E044E16EE089E192E00E9495
:10032000B10561E089E192E00E94EC0641E061E004
:1003300089E192E00E94C40620E040E06EE889E195
:1003400092E00E94B10562E089E192E00E94EC0631
:1003500041E062E089E192E00E94C406809172016E
:100360008823E1F361E089E192E00E94EC068823B2
:1003700071F00E945D060E949C0068E171E083E7D5
:1003800091E00E94C10383E791E00E94CA0362E00A
:1003900089E192E00E94EC06882371F00E945D06DC
:1003A0000E949C0066E271E083E791E00E94C10335
:1003B00083E791E00E94CA0310927201CFCFFC0143
:1003C000918D228D892F90E0805C9F4F821B910937
:1003D0008F7399270895FC01918D828D981731F0C4
:1003E000828DE80FF11D858D90E008958FEF9FEFCE
:1003F0000895FC01918D828D981761F0828DDF0147
:10040000A80FB11D5D968C91928D9F5F9F73928F07
:1004100090E008958FEF9FEF0895FC01848DDF0138
:10042000A80FB11DA35ABF4F2C91848D90E0019667
:100430008F739927848FA689B7892C93A089B18956
:100440008C9180648C93938D848D981306C0028860
:10045000F389E02D80818F7D80830895CF93DF9392
:10046000EC01888D8823C9F0EA89FB89808185FDAC
:1004700005C0A889B9898C9186FD0FC00FB607FC0D
:10048000F5CF808185FFF2CFA889B9898C9185FF4E
:10049000EDCFCE010E940D02E7CFDF91CF910895FD
:1004A000EF92FF920F931F93CF93DF93EC0181E0C4
:1004B000888F9B8D8C8D981305C0E889F989808180
:1004C00085FD24C0F62E0B8D10E00F5F1F4F0F73BC
:1004D0001127E02E8C8DE8120CC00FB607FCFACF66
:1004E000E889F989808185FFF5CFCE010E940D0250
:1004F000F1CF8B8DFE01E80FF11DE35AFF4FF08223
:100500000B8FEA89FB898081806207C0EE89FF89B1
:100510006083E889F98980818064808381E090E04C
:10052000DF91CF911F910F91FF90EF900895CF929F
:10053000DF92EF92FF921F93CF93DF93EC016A015A
:100540007B01122FE889F98982E080834115514EA1
:1005500061057105B1F060E079E08DE390E0A701FD
:1005600096010E94E90CDA01C9010197A109B109BC
:10057000B695A79597958795AC01411580E15807E9
:10058000A8F0E889F989108260E874E88EE190E0CB
:10059000A70196010E94E90CBA01A9014150510935
:1005A000610971097695679557954795EC85FD85A5
:1005B0005083EE85FF854083188EEC89FD8910837A
:1005C000EA89FB89808180618083EA89FB89808157
:1005D00088608083EA89FB89808180688083EA89DA
:1005E000FB8980818F7D8083DF91CF911F91FF9068
:1005F000EF90DF90CF9008951F920F920FB60F9259
:1006000011242F938F939F93EF93FF93E091830196
:10061000F09184018081E0918901F0918A0182FD4D
:1006200012C0908180918C018F5F8F7320918D011A
:10063000821751F0E0918C01F0E0ED58FE4F958F5C
:1006400080938C0101C08081FF91EF919F918F91E8
:100650002F910F900FBE0F901F9018951F920F9221
:100660000FB60F9211242F933F934F935F936F9385
:100670007F938F939F93AF93BF93EF93FF9383E702
:1006800091E00E940D02FF91EF91BF91AF919F9178
:100690008F917F916F915F914F913F912F910F902B
:1006A0000FBE0F901F901895E3E7F1E013821282BE
:1006B00088EE93E0A0E0B0E084839583A683B783BF
:1006C00088E391E09183808385EC90E0958784872F
:1006D00084EC90E09787868780EC90E0918B808B0C
:1006E00081EC90E0938B828B82EC90E0958B848BF5
:1006F00086EC90E0978B868B118E128E138E148E63
:100700000895CF92DF92EF92FF920F931F93CF93B2
:10071000DF936C017A018B01C0E0D0E0CE15DF05DC
:1007200089F0D8016D918D01D601ED91FC91019078
:10073000F081E02DC6010995892B11F47E0102C0DC
:100740002196ECCFC701DF91CF911F910F91FF90C0
:10075000EF90DF90CF9008956115710579F0FB015E
:1007600001900020E9F73197AF01461B570BDC01E0
:10077000ED91FC910280F381E02D099480E090E0FE
:1007800008950C94AC03DC01ED91FC910190F08193
:10079000E02D099464E471E00C94AC038F929F9275
:1007A000AF92BF92CF92DF92EF92FF920F931F937F
:1007B000CF93DF93CDB7DEB7A1970FB6F894DEBF26
:1007C0000FBECDBF7C01D42EC52EDB0119A2223075
:1007D00008F42AE08E010F5D1F4F822E912CA12C70
:1007E000B12C6D2D7C2DCD01A50194010E94E90C49
:1007F000D22EC32EDA01015011096A30710581052C
:10080000910510F4605D01C0695CF8016083232BE1
:10081000242B252B31F7B801C7010E94AC03A19608
:100820000FB6F894DEBF0FBECDBFDF91CF911F9101
:100830000F91FF90EF90DF90CF90BF90AF909F907F
:100840008F900895CF92DF92EF92FF920F931F93B4
:10085000CF93DF93EC016A017B012115310579F417
:10086000E881F9810190F081E02D642FDF91CF9133
:100870001F910F91FF90EF90DF90CF9009942A3055
:100880003105E9F477FF1AC06DE20E94C3038C01C1
:1008900044275527BA014C195D096E097F092AE0E2
:1008A000CE010E94CE03800F911FDF91CF911F9147
:1008B0000F91FF90EF90DF90CF9008952AE0B7015D
:1008C000A601CE01DF91CF911F910F91FF90EF9084
:1008D000DF90CF900C94CE0308958230E8F4E82F97
:1008E000F0E0EE0FFF1FE050FF4F71836083813017
:1008F00041F0809169008C7F482B40936900E89A11
:10090000089580916900440F551F440F551F837F40
:10091000482B40936900E99A08951F920F920FB6F1
:100920000F9211242F933F934F935F936F937F9375
:100930008F939F93AF93BF93EF93FF93E091000149
:10094000F09101010995FF91EF91BF91AF919F91B6
:100950008F917F916F915F914F913F912F910F9068
:100960000FBE0F901F9018951F920F920FB60F9207
:1009700011242F933F934F935F936F937F938F93A4
:100980009F93AF93BF93EF93FF93E0910201F09198
:1009900003010995FF91EF91BF91AF919F918F91C5
:1009A0007F916F915F914F913F912F910F900FBE6B
:1009B0000F901F9018951F920F920FB60F9211244F
:1009C0002F933F938F939F93AF93BF938091110287
:1009D00090911202A0911302B09114023091100272
:1009E00023E0230F2D3720F40196A11DB11D05C072
:1009F00026E8230F0296A11DB11D209310028093BB
:100A0000110290931202A0931302B09314028091EA
:100A1000150290911602A0911702B091180201964A
:100A2000A11DB11D8093150290931602A093170289
:100A3000B0931802BF91AF919F918F913F912F91E9
:100A40000F900FBE0F901F901895789484B5826018
:100A500084BD84B5816084BD85B5826085BD85B562
:100A6000816085BDEEE6F0E0808181608083E1E811
:100A7000F0E0108280818260808380818160808349
:100A8000E0E8F0E0808181608083E1EBF0E080814C
:100A900084608083E0EBF0E0808181608083EAE71E
:100AA000F0E08081846080838081826080838081A7
:100AB000816080838081806880831092C100089566
:100AC000982F92959F702AEF929F800D1124089580
:100AD00080E392E00C94B509EF92FF920F931F937D
:100AE000CF93DF9300D0CDB7DEB7062F122F68E685
:100AF00070E080E392E049835A830E94C909602F25
:100B000080E392E00E9476094981042FE42E5A8105
:100B1000F52E8E2D801B811740F4F70161917F0126
:100B200080E392E00E947609F4CF80E392E00F9098
:100B30000F90DF91CF911F910F91FF90EF900C9448
:100B4000480ACF93DF931F92CDB7DEB7498321E0E8
:100B5000AE014F5F5F4F0E946C050F90DF91CF9108
:100B60000895CF92DF92EF920F931F93CF93DF936D
:100B70006C01362F5AE0842F652F0E94C90C982FE4
:100B8000990F890F880F480F822F0E94C90C182FC8
:100B9000110F180F110F120F802F0E94C90C982FE0
:100BA000990F890F880F080F8E2D0E94C90CC82F2E
:100BB000CC0FC80FCC0FCE0D30FD406831FD106852
:100BC00032FD006834FDC06433FDC06837FD06C0E7
:100BD00067E0C6010E94A105D8E001C0DBE0412F1B
:100BE0006D2FC6010E94A10561E06D0F402FC60167
:100BF0000E94A10562E06D0F4C2FC601DF91CF91DD
:100C00001F910F91EF90DF90CF900C94A105CF939F
:100C1000DF93EC0168E670E080E392E00E94C9098E
:100C200060E080E392E00E94760980E392E00E9417
:100C3000480A882319F080931A023CC047E050E02C
:100C400068E670E080E392E00E94450A80E392E06B
:100C50000E9422098F770E946005888380E392E0DA
:100C60000E9422090E946005898380E392E00E942D
:100C700022098F7B0E9460058A8380E392E00E94B4
:100C800022098B8380E392E00E9422090E94600582
:100C90008C8380E392E00E9422098F770E94600596
:100CA0008D8380E392E00E9422090E946005825EAB
:100CB0008E8380E0DF91CF910895CF93DF93CDB7FE
:100CC000DEB727970FB6F894DEBF0FBECDBFCE01BB
:100CD00001960E940706811105C0CE0101960E946F
:100CE0005A0803C060E070E0CB0127960FB6F89475
:100CF000DEBF0FBECDBFDF91CF910895EF92FF927F
:100D00000F931F93CF93DF93C62F042FE52E122F3F
:100D100068E670E080E392E00E94C9096C2F80E3EE
:100D200092E00E94760980E392E00E94480A8111D5
:100D300014C0412F68E680E392E00E94420AF02E40
:100D4000C02FDE2D8C2F8F19811730F480E392E0B5
:100D50000E9422098993F6CF80E0DF91CF911F9105
:100D60000F91FF90EF900895CF93DF931F92CDB72F
:100D7000DEB721E0AE014F5F5F4F0E947E068981A2
:100D80000F90DF91CF910895FF920F931F93CF9310
:100D9000DF931F92CDB7DEB78C01F62E6EE049834C
:100DA0000E94B406FA9421E030E001C0220FFA94C8
:100DB000EAF74981442319F0482F422B03C02095BC
:100DC000482F42236EE0C8010F90DF91CF911F9111
:100DD0000F91FF900C94A1050F931F93CF938C015B
:100DE000C62F6FE00E94B406C15021E030E001C080
:100DF000220FCA95EAF7982F922349F02095482FA1
:100E000042236FE0C8010E94A10581E001C080E09B
:100E1000CF911F910F9108950F931F93CF938C0142
:100E2000C62F6EE00E94B406482FC43010F0446014
:100E300006C0437E88E0C89FB0011124462B6EE0B7
:100E4000C801CF911F910F910C94A10523E0829FBF
:100E5000C0011124ABE1B2E020E030E0F901E80F7D
:100E6000F91FE859FF4FE491ED932F5F3F4F233077
:100E70003105A1F710921E028BE192E008956F9266
:100E80007F928F929F92AF92BF92CF92DF92EF921A
:100E9000FF920F931F93CF93DF93EA012CE3C22EAF
:100EA000D12CE12CF12CA70196010E94E90C68835A
:100EB000CA01B901A70196010E94E90C6983CA0120
:100EC000B90128E130E040E050E00E94E90C6901FE
:100ED0007A016A83CA01B9016C5F7F4F8F4F9F4FC0
:100EE00027E030E040E050E00E94E90C6F5F6B8348
:100EF000812C912C540140E034E6632E712C00E9E2
:100F000011E0242F30E02E54384FF901E370FF2711
:100F1000309789F4C901B3010E94D50C892B31F4B3
:100F2000C901B8010E94D50C892B29F48EE691E005
:100F3000A0E0B0E004C08DE691E0A0E0B0E0880E53
:100F4000991EAA1EBB1ED501C401AA27BB27C8161D
:100F5000D906EA06FB0610F04F5FD3CF4E833097D9
:100F600099F4C90164E670E00E94D50C892B39F42C
:100F7000C90160E971E00E94D50C892B29F48EE645
:100F800091E0A0E0B0E004C08DE691E0A0E0B0E028
:100F9000881A990AAA0ABB0AC818D908EA08FB08DD
:100FA000C90164E670E00E94D50C8C01C90160E9BA
:100FB00071E00E94D50CA5E5B1E020E0213041F4BC
:100FC000309751F40115110529F4009729F402C056
:100FD0004C9103C04DE101C04CE150E060E070E095
:100FE000C416D506E606F70640F0C41AD50AE60A86
:100FF000F70A2F5F11962C3009F72F5F2D83C394CA
:10100000CC82DF91CF911F910F91FF90EF90DF90F5
:10101000CF90BF90AF909F908F907F906F900895EA
:10102000CF92DF92EF92FF92C0902502D0902602DD
:10103000E0902702F09028026C157D058E059F0533
:1010400071F06B017C0149E252E00E943F07C092BF
:101050002502D0922602E0922702F0922802FF9009
:10106000EF90DF90CF9008950E94100880912B029E
:1010700090E008950E94100880912A0290E008955F
:101080000E9410088091290290E008950E941008A3
:1010900080912D0290E008950E94100880912E0208
:1010A00090E008950E94100880912F0290E08E54E5
:1010B000984F08956F927F928F929F92AF92BF92B6
:1010C000CF92DF92EF92FF920F931F93CF93DF9314
:1010D000EC01EE81AE2FB0E020E833E341EE51E0C9
:1010E0000E941A0D4B015C0122EB37E0FD0104E682
:1010F00010E080E9E82EFF24F394C901825B974059
:101100008E179F07DCF4C90183709927892B99F406
:10111000C901B8010E94D50C892B31F4C901B7016E
:101120000E94D50C892B39F480E8880E81E5981E41
:1011300081E0A81EB11C2F5F3F4FDFCF6D80712C67
:10114000EE54F84FCF0164E670E00E94D50C7C01AC
:10115000CF0160E971E00E94D50C6C0101E010E064
:10116000E370FF27061517052CF50230110581F4F1
:10117000309771F4E114F10419F4C114D10441F46D
:1011800080E8880E8BE3981E86E2A81EB11C0FC073
:10119000D801AC5ABE4FAC91B0E020E831E541E057
:1011A00050E00E941A0D860E971EA81EB91E0F5FF2
:1011B0001F4FD8CF49812A8130E0A0E1BEE00E94D4
:1011C0000B0D6B017C01242F30E0ACE3B0E00E94FA
:1011D0000B0DDC01CB018C0D9D1DAE1DBF1D2881AB
:1011E0006C017D01C20ED11CE11CF11CAC81B0E090
:1011F000119720E831E541E050E00E94250DDC0127
:10120000CB018C0D9D1DAE1DBF1DBC01CD01680D18
:10121000791D8A1D9B1DDF91CF911F910F91FF902A
:10122000EF90DF90CF90BF90AF909F908F907F9086
:101230006F9008958091600290E020916102821B7E
:10124000910908959091610280916002981750F47D
:10125000E92FF0E0EE59FD4F208130E09F5F909341
:10126000610202C02FEF3FEFC9010895E0916102D2
:1012700080916002E81730F4F0E0EE59FD4F808174
:1012800090E008958FEF9FEF08950895CF92DF9239
:10129000EF92FF920F931F93CF93DF937C01262F42
:1012A000972F8A0180913C02882391F0C62FD72F77
:1012B0006E01C40ED51ECC15DD0571F06991D70104
:1012C000ED91FC910190F081E02DC7010995F3CFDC
:1012D000642F822F0E940B0BC801DF91CF911F91C9
:1012E0000F91FF90EF90DF90CF900895CF93DF9311
:1012F0001F92CDB7DEB7698320913C022223D1F043
:1013000020913D02203240F021E030E0FC013383A7
:10131000228380E090E015C080913E02E82FF0E04B
:10132000E15CFD4F998190838F5F80933E028093B3
:101330003D0205C061E0CE0101960E940B0B81E0E9
:1013400090E00F90DF91CF910895FC0113821282FB
:1013500088EE93E0A0E0B0E084839583A683B78312
:1013600085E691E091838083089510926102109246
:10137000600210923E0210923D020C944F0A81E0EE
:1013800080933C0260935F0210923E0210923D02F5
:1013900008950C94BF090F93062F21E040913D0260
:1013A0006FE372E080915F020E94B50A10923E02E4
:1013B00010923D0210923C020F9108954F925F925D
:1013C0006F927F92AF92BF92CF92EF92FF920F9364
:1013D0001F93CF93DF935C01F62ED42F28013901A0
:1013E000EE2021F10E94BF09CE2DC43008F0C3E0E9
:1013F000C150C0F0D501ED91FC91B8E0CB9FC00188
:101400001124A301920104C056954795379527955D
:101410008A95D2F7CA01B9010190F081E02DC5018A
:101420000995E6CF60E0C5010E94CB094D2FD1326E
:1014300008F040E22C2D62E672E08F2D0E946D0ACA
:101440001092610280936002DF91CF911F910F9102
:10145000FF90EF90CF90BF90AF907F906F905F9094
:101460004F900895CF92EF920F931F93C22EE12CCD
:1014700000E010E098010E94DE091F910F91EF90AB
:10148000CF90089521E00C94320A21E00C94320AA6
:1014900061E00C94CB0980E392E00C94A5091092D2
:1014A000EF0281E08093ED021092EC0261E082E1B4
:1014B0000E94990C61E083E10E94990CE9EBF0E055
:1014C00080818E7F808380818D7F808388E480937C
:1014D000B80085E48093BC000895413208F043C011
:1014E0009091EF029111FCCF91E09093EF02209345
:1014F000ED022FEF209382021092C702240F209357
:10150000C6029093EE029091EE02880F892B809391
:10151000EE028091EC02813061F41092EC02809135
:10152000EE028093BB008091BC0083FDF8CF85EC78
:1015300001C085EE8093BC008091EF028130E1F321
:101540008091C702841710F44091C70228EC32E062
:10155000FB01D9018A2F821B841718F48D91819386
:10156000F9CF842F089580E008950F93413208F059
:101570004AC09091EF029111FCCF32E03093EF021C
:101580000093ED023FEF309382021092C702409326
:10159000C602FB0168EC72E0DB013A2F361B341700
:1015A00018F431913D93F9CF1092EE023091EE0292
:1015B000880F832B8093EE028091EC02813061F4DE
:1015C0001092EC028091EE028093BB008091BC00EF
:1015D00083FDF8CF85EC01C085EE8093BC0022230B
:1015E00021F08091EF028230D1F3809182028F3F0F
:1015F00079F080918202803241F0809182028033C2
:1016000031F094E005C091E003C092E001C093E0A6
:10161000892F0F9108954091A402262F30E0240FC6
:10162000311D21323105DCF42091EF022430C9F460
:10163000FC0180E090E0861758F43091A4022191DB
:10164000DC01AA55BD4FA30FB11D2C930196F3CF1A
:101650008091A402680F6093A40280E0089581E065
:10166000089582E0089585ED8093BC008091BC00D0
:1016700084FDFCCF1092EF02089585EC8093BC00AE
:101680001092EF0208951F920F920FB60F9211243D
:101690002F933F934F935F936F937F938F939F937A
:1016A000AF93BF93EF93FF938091B900887F80360B
:1016B00009F49EC078F5883209F45DC090F4803159
:1016C00009F456C038F4882309F4F5C0883009F4C9
:1016D0004FC0F5C0883109F44EC0803209F45FC0B4
:1016E000EEC0803409F46AC058F4803309F457C05E
:1016F000883309F0E4C0809382020E943D0BDFC072
:10170000803509F44FC0883509F45DC0883409F08C
:10171000D6C0D3C0883909F4C4C0A8F4883709F406
:1017200067C038F4883609F463C0803709F460C0B4
:10173000C6C0883809F4B5C0803909F45FC0803864
:1017400009F0BDC05BC0803B09F483C038F4803A27
:1017500009F466C0883A09F47CC0B1C0803C09F441
:10176000A4C0883C09F4A1C0883B09F487C0A7C085
:101770008091EE0210C09091C7028091C602981726
:1017800070F5E091C70281E08E0F8093C702F0E010
:10179000E853FD4F80818093BB0085EC83C080932C
:1017A00082028BC0E091C70281E08E0F8093C70256
:1017B0008091BB00F0E0E853FD4F80839091C70219
:1017C0008091C6026BC0E091C70281E08E0F8093CA
:1017D000C7028091BB00F0E0E853FD4F8083809109
:1017E000ED0281116AC081E08093EC0284EA5EC060
:1017F00083E08093EF0210928302CFCF8091830227
:10180000803208F04EC0E091830281E08E0F809319
:1018100083028091BB00F0E0EC57FD4F8083BDCF89
:101820000E943D0B80918302803230F4E09183026C
:10183000F0E0EC57FD4F10826091830270E0E09180
:10184000E802F091E90284E892E00995109283029F
:1018500036C084E08093EF021092A5021092A40299
:10186000E091EA02F091EB0209958091A4028111C6
:1018700005C081E08093A4021092A602E091A50227
:1018800081E08E0F8093A502F0E0EA55FD4F808144
:101890008093BB009091A5028091A402981708F450
:1018A0007CCF85E88093BC000AC085EC8093BC00A7
:1018B0001092EF0204C0109282020E94330BFF913B
:1018C000EF91BF91AF919F918F917F916F915F91B8
:1018D0004F913F912F910F900FBE0F901F90189531
:1018E000833081F028F4813099F08230A1F008959E
:1018F0008730A9F08830B9F08430D1F4809180002D
:101900008F7D03C0809180008F7780938000089541
:1019100084B58F7702C084B58F7D84BD0895809192
:10192000B0008F7703C08091B0008F7D8093B000AE
:1019300008951F93CF93DF93282F30E0F901E057EC
:10194000FF4F8491F901EC55FF4FD491F901E85410
:10195000FF4FC491CC23C9F0162F81110E94700C47
:10196000EC2FF0E0EE0FFF1FE453FF4FA591B49171
:101970008FB7F894111105C09C91ED2FE095E923E4
:1019800002C0EC91ED2BEC938FBFDF91CF911F91B3
:101990000895991B79E004C0991F961708F0961BCB
:1019A000881F7A95C9F78095089597FB072E16F43E
:1019B000009407D077FD09D00E942D0D07FC05D0BB
:1019C0003EF4909581959F4F0895709561957F4F56
:1019D0000895A1E21A2EAA1BBB1BFD010DC0AA1F70
:1019E000BB1FEE1FFF1FA217B307E407F50720F088
:1019F000A21BB30BE40BF50B661F771F881F991F03
:101A00001A9469F760957095809590959B01AC014B
:101A1000BD01CF010895A29FB001B39FC001A39F54
:101A2000700D811D1124911DB29F700D811D112417
:101A3000911D08950E940B0DA59F900DB49F900DD0
:101A4000A49F800D911D11240895B7FF0C941A0DC9
:101A50000E941A0D821B930B0895AA1BBB1B51E118
:101A600007C0AA1FBB1FA617B70710F0A61BB70B0E
:101A7000881F991F5A95A9F780959095BC01CD01B3
:101A80000895EE0FFF1F0590F491E02D0994F8944E
:021A9000FFCF86
:101A92006C046C04300043757272656E7420746954
:101AA2006D652069733A2000202D2D3E20416C6126
:101AB200726D20312100202D2D3E20416C61726D0E
:101AC200203221000000000050028103DF01F901F1
:101AD200EB012E020D0A006E616E00696E66006FE8
:101AE2007666002E001F1C1F1E1F1E1F1F1E1F1E9C
:101AF2001F00000000760946091A09220936094525
:021B02000900D8
:00000001FF
