:100000000C9474000C946A060C9491060C949C0059
:100010000C949C000C949C000C949C000C949C00F0
:100020000C949C000C949C000C949C000C949C00E0
:100030000C949C000C949C000C949C000C949C00D0
:100040000C94B8060C949C000C94D3040C940505F5
:100050000C949C000C949C000C949C000C949C00B0
:100060000C94510F0C949C00000000080002010049
:100070000003040700000000000000000102040863
:100080001020408001020408102001020408102002
:10009000040404040404040402020202020203032E
:1000A0000303030300000000250028002B000000CC
:1000B0000000240027002A004572724A616E4665DE
:1000C000624D61724170724D61794A756E4A756C0C
:1000D0004175675365704F63744E6F764465630076
:1000E00084032B054508580E11241FBECFEFD8E01E
:1000F000DEBFCDBF11E0A0E0B1E0E4EFF1E202C06D
:1001000005900D92A638B107D9F723E0A6E8B1E033
:1001100001C01D92AD32B207E1F710E0C4E7D0E0B4
:1001200004C02197FE010E94EA10C037D107C9F729
:100130000E94F9020C94F8100C94000081E0809366
:10014000AF010895CF93DF93EC01FB01248135814A
:1001500040815181628173810E940106CE01DF914D
:10016000CF910895EF92FF920F931F93CF93DF9358
:10017000CDB7DEB727970FB6F894DEBF0FBECDBF61
:100180005E83F22EE42E89E0841718F46EE471E0A9
:1001900002C065E071E080EB91E00E9497054AE0C3
:1001A00050E06E2D80EB91E00E94FA0560E280EB5A
:1001B00091E00E9499058E810E941A0BBC0180EB90
:1001C00091E00E94970560E280EB91E00E94990522
:1001D00089E08F1518F46EE471E002C065E071E00B
:1001E00080EB91E00E9497054AE050E06F2D80EB94
:1001F00091E00E94FA056AE380EB91E00E94990584
:100200001A3018F06EE471E002C065E071E080EB36
:1002100091E00E9497054AE050E0612F80EB91E069
:100220000E94FA056AE380EB91E00E9499050A308A
:1002300018F06EE471E002C065E071E080EB91E0DF
:100240000E9497054AE050E0602F80EB91E00E9409
:10025000FA0580EB91E027960FB6F894DEBF0FBE4B
:10026000CDBFDF91CF911F910F91FF90EF900C9434
:10027000A005CF92DF92EF92FF920F931F93CF933F
:10028000DF9300D000D000D0CDB7DEB76A017B018C
:10029000CB01BA010E944E0C092E000CAA0BBB0B1D
:1002A00089839A83AB83BC838AE090E09E838D83AD
:1002B000C701B6010E944E0C0A971CF06EE471E073
:1002C00002C065E071E080EB91E00E949705BE01FD
:1002D0006F5F7F4F80EB91E00E94A20060E20E947E
:1002E0009905C701B6010E945A0C092E000CAA0BF1
:1002F000BB0B89839A83AB83BC830AE010E01E8327
:100300000D83C701B6010E94540C0E941A0BBC0158
:1003100080EB91E00E94970567E171E080EB91E04E
:100320000E949705BE016F5F7F4F80EB91E00E94B6
:10033000A20060E20E949905C701B6010E943C0C30
:10034000092E000CAA0BBB0B89839A83AB83BC8359
:100350001E830D83C701B6010E943C0C0A971CF056
:100360006EE471E002C065E071E080EB91E00E9414
:100370009705BE016F5F7F4F80EB91E00E94A20066
:100380006AE30E949905C701B6010E94420C092E3A
:10039000000CAA0BBB0B89839A83AB83BC838AE0D6
:1003A00090E09E838D83C701B6010E94420C0A979C
:1003B0001CF06EE471E002C065E071E080EB91E05A
:1003C0000E949705BE016F5F7F4F80EB91E00E9416
:1003D000A2006AE30E949905C701B6010E94480C79
:1003E000092E000CAA0BBB0B89839A83AB83BC83B9
:1003F0008AE090E09E838D83C701B6010E94480C7D
:100400000A971CF06EE471E002C065E071E080EBD9
:1004100091E00E949705BE016F5F7F4F80EB91E0F6
:100420000E94A20026960FB6F894DEBF0FBECDBF85
:10043000DF91CF911F910F91FF90EF90DF90CF90C0
:1004400008959F92AF92BF92CF92DF92EF92FF9268
:100450000F931F93CF93DF93CDB7DEB727970FB6D8
:10046000F894DEBF0FBECDBF6A017B01CB01BA019C
:100470000E945A0C182FC701B6010E944E0CB82ECC
:10048000C701B6010E94540C082FC701B6010E9493
:100490003C0CA82EC701B6010E94420C982EC70141
:1004A000B6010E94480C5C81282F392D4A2D6B2DF6
:1004B000702F812F90E027960FB6F894DEBF0FBE05
:1004C000CDBFDF91CF911F910F91FF90EF90DF9003
:1004D000CF90BF90AF909F900895EF92FF920F93AF
:1004E0001F93CF93DF93EC0152985A9A42E050E069
:1004F0006EE970E080E00E944A0664E086E592E0E2
:100500000E94830961E086E592E00E94630941E070
:1005100061E086E592E00E94420962E086E592E0B1
:100520000E94630941E062E086E592E00E94420990
:100530000091AE0110E07E0187E0E80EF11C0C1B7B
:100540001D0BC8018C0F9D1F0E94F0108993CE15C2
:10055000DF05B9F70091000110E0C0E0D0E0CE0166
:10056000800F911F0E94F010F70181937F01219667
:10057000C730D105A1F7DF91CF911F910F91FF9067
:10058000EF900895CF93DF938091AF018823B1F06E
:10059000EB0161E086E592E00E946309882311F097
:1005A00081E008C062E086E592E00E94630988234A
:1005B00011F082E088831092AF0102C0FB0110822B
:1005C000DF91CF91089587B18E6087B988B1817F1F
:1005D00088B90895613029F0623039F4439A429A1B
:1005E00002C0439A4298419A08954398429841988C
:1005F0000895CF93DF93CDB7DEB728970FB6F89461
:10060000DEBF0FBECDBF0E946E0726E040E855E278
:1006100060E070E080EB91E00E946A0420E042E03C
:1006200060E186E891E00E944F0A8FE991E00E9424
:100630006D028EE991E00E94E302188667E071E0A6
:1006400080EB91E00E9497050E94DB08AB01BC01A2
:100650008DEA91E00E94390180EB91E00E94A005B3
:1006600069E171E086E891E00E9497050E94DB084D
:10067000AB01BC018DEA91E00E94210289019A013F
:10068000AB01682F8DEA91E00E94B200BE01685F65
:100690007F4F8FE991E00E94C20288858130B1F0DE
:1006A000823059F50E94DB08AB01BC018DEA91E074
:1006B0000E9439016CE271E080EB91E00E949705A5
:1006C00080EB91E00E94A00562E013C00E94DB086D
:1006D000AB01BC018DEA91E00E9439016EE171E04D
:1006E00080EB91E00E94970580EB91E00E94A005CD
:1006F00061E08EE991E00E94EA0264E670E080E049
:1007000090E00E942707C2CFCF92EF920F931092F2
:10071000AD01EFE9F1E0108211821282138217829B
:100720001086118612868BE0C82E9AE0E92E09E029
:1007300028E04CE06DE086E891E00E94F40A0F9119
:10074000EF90CF900895FC01918D228D892F90E03C
:10075000805C9F4F821B91098F7399270895FC013C
:10076000918D828D981731F0828DE80FF11D858D66
:1007700090E008958FEF9FEF0895FC01918D828D99
:10078000981761F0828DDF01A80FB11D5D968C91E5
:10079000928D9F5F9F73928F90E008958FEF9FEFF0
:1007A0000895FC01538D448D252F30E0842F90E077
:1007B000821B930B541710F0CF960895019708955C
:1007C000FC01848DDF01A80FB11DA35ABF4F2C91EE
:1007D000848D90E001968F739927848FA689B789BD
:1007E0002C93A089B1898C9180648C93938D848D96
:1007F000981306C00288F389E02D80818F7D808365
:100800000895EF92FF920F931F93CF93DF93EC0124
:1008100081E0888F9B8D8C8D981305C0E889F989BC
:10082000808185FD24C0F62E0B8D10E00F5F1F4FD9
:100830000F731127E02E8C8DE8120CC00FB607FC49
:10084000FACFE889F989808185FFF5CFCE010E9432
:10085000E003F1CF8B8DFE01E80FF11DE35AFF4F4E
:10086000F0820B8FEA89FB898081806207C0EE8964
:10087000FF896083E889F98980818064808381E0D1
:1008800090E0DF91CF911F910F91FF90EF9008952D
:10089000CF93DF93EC01888D8823C9F0EA89FB8927
:1008A000808185FD05C0A889B9898C9186FD0FC01E
:1008B0000FB607FCF5CF808185FFF2CFA889B989F3
:1008C0008C9185FFEDCFCE010E94E003E7CFDF9151
:1008D000CF910895CF92DF92EF92FF921F93CF9323
:1008E000DF93EC016A017B01122FE889F98982E02C
:1008F00080834115514E61057105B1F060E079E0EA
:100900008DE390E0A70196010E949210DA01C901DF
:100910000197A109B109B695A795979587959C016F
:10092000211580E13807A8F0E889F989108260E88C
:1009300074E88EE190E0A70196010E949210DA011E
:10094000C9010197A109B109B695A7959795879512
:100950009C01EC85FD853083EE85FF852083188E14
:10096000EC89FD891083EA89FB898081806180831D
:10097000EA89FB89808188608083EA89FB8980819C
:1009800080688083EA89FB8980818F7D8083DF9105
:10099000CF911F91FF90EF90DF90CF90089580E06E
:1009A00090E0089508951F920F920FB60F921124B0
:1009B0002F938F939F93EF93FF93E091C001F0915A
:1009C000C1018081E091C601F091C70182FD12C092
:1009D00090818091C9018F5F8F732091CA01821726
:1009E00051F0E091C901F0E0E055FE4F958F809302
:1009F000C90101C08081FF91EF919F918F912F914B
:100A00000F900FBE0F901F9018951F920F920FB668
:100A10000F9211242F933F934F935F936F937F9384
:100A20008F939F93AF93BF93EF93FF9380EB91E0EE
:100A30000E94E003FF91EF91BF91AF919F918F9141
:100A40007F916F915F914F913F912F910F900FBECA
:100A50000F901F901895E0EBF1E01382128288EE60
:100A600093E0A0E0B0E084839583A683B7838EE310
:100A700091E09183808385EC90E09587848784EC76
:100A800090E09787868780EC90E0918B808B81EC5B
:100A900090E0938B828B82EC90E0958B848B86EC3C
:100AA00090E0978B868B118E128E138E148E089584
:100AB000CF92DF92EF92FF920F931F93CF93DF932A
:100AC0006C017A018B01C0E0D0E0CE15DF0581F02A
:100AD000D8016D918D01D601ED91FC910190F081CD
:100AE000E02DC6010995892B11F02196EECF7E01EC
:100AF000C701DF91CF911F910F91FF90EF90DF9091
:100B0000CF9008956115710579F0FB0101900020E7
:100B1000E9F73197AF01461B570BDC01ED91FC91D2
:100B20000280F381E02D099480E090E008950C9418
:100B30008205DC01ED91FC910190F081E02D09949A
:100B40006CE471E00C9482058F929F92AF92BF92F9
:100B5000EF92FF920F931F93CF93DF93CDB7DEB742
:100B6000A1970FB6F894DEBF0FBECDBF7C01FA018E
:100B7000CB0119A2223008F42AE08E010F5D1F4F2D
:100B8000822E912CA12CB12CBF01A50194010E94B1
:100B90009210F901CA01015011096A3010F4605D28
:100BA00001C0695CD8016C93232B242B252B61F7A2
:100BB000B801C7010E948205A1960FB6F894DEBF66
:100BC0000FBECDBFDF91CF911F910F91FF90EF909E
:100BD000BF90AF909F908F9008952115310541F4FB
:100BE000DC01ED91FC910190F081E02D642F0994DE
:100BF0000C94A4059A01462F50E060E070E00C943C
:100C0000ED05CF92DF92EF92FF920F931F93CF9358
:100C1000DF932115310581F4DC01ED91FC91019008
:100C2000F081E02D642FDF91CF911F910F91FF9004
:100C3000EF90DF90CF9009942A30310501F577FFCE
:100C40001DC06A017B01EC016DE20E9499058C01D7
:100C500044275527BA014C195D096E097F092AE01E
:100C6000CE010E94A405800F911FDF91CF911F91AB
:100C70000F91FF90EF90DF90CF9008952AE0DF91E1
:100C8000CF911F910F91FF90EF90DF90CF900C9438
:100C9000A40508958230E8F4E82FF0E0EE0FFF1F7E
:100CA000EF5FFE4F71836083813041F08091690076
:100CB0008C7F482B40936900E89A089580916900E1
:100CC000837F440F551F440F551F482B40936900E5
:100CD000E99A08951F920F920FB60F9211242F9345
:100CE0003F934F935F936F937F938F939F93AF93B4
:100CF000BF93EF93FF93E0910101F09102010995F9
:100D0000FF91EF91BF91AF919F918F917F916F91E3
:100D10005F914F913F912F910F900FBE0F901F90B9
:100D200018951F920F920FB60F9211242F933F9395
:100D30004F935F936F937F938F939F93AF93BF93E3
:100D4000EF93FF93E0910301F09104010995FF9166
:100D5000EF91BF91AF919F918F917F916F915F9133
:100D60004F913F912F910F900FBE0F901F901895AC
:100D70001F920F920FB60F9211242F933F938F93D0
:100D80009F93AF93BF9380914E0290914F02A09199
:100D90005002B091510230914D0223E0230F2D37C4
:100DA00020F40196A11DB11D05C026E8230F02966F
:100DB000A11DB11D20934D0280934E0290934F02CE
:100DC000A0935002B093510280915202909153022D
:100DD000A0915402B09155020196A11DB11D8093BE
:100DE000520290935302A0935402B0935502BF91C4
:100DF000AF919F918F913F912F910F900FBE0F90C8
:100E00001F9018953FB7F894809152029091530229
:100E1000A0915402B091550226B5A89B05C02F3F62
:100E200019F00196A11DB11D3FBFBA2FA92F982F10
:100E30008827820F911DA11DB11DBC01CD0142E08B
:100E4000660F771F881F991F4A95D1F708958F92D3
:100E50009F92AF92BF92CF92DF92EF92FF926B017F
:100E60007C010E9402074B015C01C114D104E10422
:100E7000F10401F10E945C0E0E940207DC01CB012B
:100E800088199909AA09BB09883E9340A105B105B3
:100E900060F321E0C21AD108E108F10888EE880E5B
:100EA00083E0981EA11CB11CC114D104E104F1041B
:100EB00019F7DBCFFF90EF90DF90CF90BF90AF900E
:100EC0009F908F9008958230910538F0880F991F78
:100ED000880F991F05970197F1F70895789484B5C5
:100EE000826084BD84B5816084BD85B5826085BD26
:100EF00085B5816085BDEEE6F0E08081816080830C
:100F0000E1E8F0E0108280818260808380818160EE
:100F10008083E0E8F0E0808181608083E1EBF0E0B5
:100F2000808184608083E0EBF0E080818160808359
:100F3000EAE7F0E080818460808380818260808342
:100F40008081816080838081806880831092C1006D
:100F50000895833081F028F4813099F08230A1F037
:100F600008958730A9F08830B9F08430D1F48091A9
:100F700080008F7D03C0809180008F7780938000F8
:100F8000089584B58F7702C084B58F7D84BD0895A0
:100F90008091B0008F7703C08091B0008F7D8093E7
:100FA000B0000895CF93DF9390E0FC01E458FF4F29
:100FB0002491FC01E057FF4F8491882361F190E078
:100FC000880F991FFC01E255FF4FC591D491FC0198
:100FD000EC55FF4FA591B491611109C09FB7F894EA
:100FE0008881209582238883EC912E230BC0623068
:100FF00061F49FB7F8948881322F309583238883DA
:10100000EC912E2B2C939FBF06C08FB7F894E881EC
:101010002E2B28838FBFDF91CF9108951F93CF93FD
:10102000DF93282F30E0F901E859FF4F8491F9014F
:10103000E458FF4FD491F901E057FF4FC491CC23FE
:10104000C1F0162F81110E94A907EC2FF0E0EE0FDE
:10105000FF1FEC55FF4FA591B4919FB7F894111164
:1010600004C08C91D095D82302C0EC91DE2BDC9388
:101070009FBFDF91CF911F910895982F92959F70F8
:101080002AEF929F800D112408958DE692E00C9432
:10109000C20DFF920F931F93CF93DF93C62FF42EB1
:1010A000052F122F68E670E08DE692E00E94D60DC3
:1010B0006C2F8DE692E00E94830DCF2DD02FCE01B4
:1010C000810F911D8C01C017D10731F069918DE618
:1010D00092E00E94830DF7CF8DE692E0DF91CF91F1
:1010E0001F910F91FF900C94550ECF93DF931F9299
:1010F000CDB7DEB7498321E0AE014F5F5F4F0E945D
:1011000049080F90DF91CF910895CF93DF93EC01C1
:1011100068E670E08DE692E00E94D60D60E08DE614
:1011200092E00E94830D8DE692E00E94550E882386
:1011300019F0809357023CC047E050E068E670E049
:101140008DE692E00E94520E8DE692E00E94320DF2
:101150008F770E943D0888838DE692E00E94320DD1
:101160000E943D0889838DE692E00E94320D8F7BBC
:101170000E943D088A838DE692E00E94320D8B83A7
:101180008DE692E00E94320D0E943D088C838DE630
:1011900092E00E94320D8F770E943D088D838DE68C
:1011A00092E00E94320D0E943D08825E8E8380E0B4
:1011B000DF91CF910895CF93DF93CDB7DEB7279717
:1011C0000FB6F894DEBF0FBECDBFCE0101960E94D0
:1011D0008508811105C0CE0101960E94620C03C0F2
:1011E00060E070E0CB0127960FB6F894DEBF0FBE2B
:1011F000CDBFDF91CF910895FF920F931F93CF93AF
:10120000DF93C62FF42E052F122F68E670E08DE6CF
:1012100092E00E94D60D6C2F8DE692E00E94830D25
:101220008DE692E00E94550E811116C0412F68E6AE
:101230008DE692E00E944F0ECF2DD02FCE01810F70
:10124000911D8C01C017D10731F08DE692E00E940C
:10125000320D8993F7CF80E0DF91CF911F910F91ED
:10126000FF900895CF93DF931F92CDB7DEB721E0B3
:10127000AE014F5F5F4F0E94FC0889810F90DF91A4
:10128000CF9108950F931F93CF93DF938C01C62FB7
:10129000D42F6EE00E943209C15021E030E001C03D
:1012A000220FCA95EAF7DD2319F0482F422B03C01D
:1012B0002095422F48236EE0C801DF91CF911F9106
:1012C0000F910C9475080F931F93CF938C01C62F29
:1012D0006FE00E943209C15021E030E001C0220FCE
:1012E000CA95EAF7982F922349F02095422F482378
:1012F0006FE0C8010E94750881E001C080E0CF91D5
:101300001F910F9108950F931F93CF938C01C62FB8
:101310006EE00E943209482FC43010F0446006C0CD
:10132000437E88E0C89FB0011124462B6EE0C801BF
:10133000CF911F910F910C947508CF93DF93EC011F
:1013400060E08E810E940E0881E090E00E946307B9
:1013500061E08E810E940E0881E090E00E946307A8
:1013600060E08E810E940E0884E690E0DF91CF91CC
:101370000C946307CF92DF92EF92FF920F931F932B
:10138000CF93DF936C017C0187E0E80EF11CC0E095
:10139000D0E0062F10E0B8010C2E02C075956795BD
:1013A0000A94E2F76170F70181917F010E940E08B3
:1013B0002196C430D10579F7C601DF91CF911F91F5
:1013C0000F91FF90EF90DF90CF900C949D09CF92FA
:1013D000DF92EF92FF920F931F93CF93DF936C01F5
:1013E0007C0187E0E80EF11CC0E0D0E0062F10E0A1
:1013F000B8010C2E02C0759567950A94E2F76170EA
:10140000F70181917F010E940E082196C830D10515
:1014100079F7C601DF91CF911F910F91FF90EF9067
:10142000DF90CF900C949D091F93CF93DF93EC0135
:10143000162F642F8C810E940E088D818F3F19F02A
:1014400060E00E940E088F85612F84FF06C0CE01E8
:10145000DF91CF911F910C94E70970E084E07595BE
:1014600067958A95E1F7CE010E94BA09612FCE01F6
:10147000DF91CF911F910C94BA0940E00C94140AAB
:1014800061E00E943D0A80ED97E00C946307FC0147
:101490006089262F2460208B6C600C943D0AEF92AB
:1014A000FF920F931F93CF93DF93EC01423018F01C
:1014B0008F8588608F874B8B1C8A80E48D8B6E8B29
:1014C00070E0605C7F4F6F8B222329F0413019F46C
:1014D0008F8584608F8761E08C810E94D2078D8127
:1014E0008F3F19F061E00E94D20761E08E810E9477
:1014F000D2077E0187E0E80EF11C00E010E08F8546
:1015000084FD03C084E090E002C088E090E008170A
:1015100019074CF461E0F70181917F010E94D20725
:101520000F5F1F4FECCF80E593EC0E94630760E0F4
:101530008C810E940E0860E08E810E940E088D81D1
:101540008F3F19F060E00E940E086F8564FD1DC09A
:1015500063E0CE010E94BA0984E991E10E94630729
:1015600063E0CE010E94BA0984E991E10E94630719
:1015700063E0CE010E94BA0986E990E00E94630709
:1015800062E0CE010E94BA0916C06062CE010E94DC
:101590003D0A84E991E10E9463076F856062CE0194
:1015A0000E943D0A86E990E00E9463076F856062B1
:1015B000CE010E943D0A6F856062CE010E943D0A05
:1015C00084E0888BCE010E94470ACE010E94400A27
:1015D00082E0898B66E0CE01DF91CF911F910F9160
:1015E000FF90EF900C943D0ACF92EF920F93FC0185
:1015F000138212828FE591E09183808364838FEF61
:101600008583468327830087E186C28613861486F6
:1016100015861686178620E041E060E1CF010F9124
:10162000EF90CF900C944F0A41E00E94140A81E0A1
:1016300090E0089523E0829FC0011124A8E5B2E064
:1016400020E030E0FC01E20FF31FE854FF4FE4918B
:10165000ED932F5F3F4F23303105A1F710925B02CE
:1016600088E592E008956F927F928F929F92AF9259
:10167000BF92CF92DF92EF92FF920F931F93CF937F
:10168000DF936B017C01EA018CE3882E912CA12C65
:10169000B12CC701B601A50194010E949210688384
:1016A000CA01B901A50194010E9492106983C70182
:1016B000B60120E13EE040E050E00E949210CA01F5
:1016C000B90128E130E040E050E00E9492106A83C6
:1016D000C701B60120E831E541E050E00E949210D8
:1016E00069017A01CA01B9016C5F7F4F8F4F9F4F2B
:1016F00027E030E040E050E00E9492106F5F6B8383
:10170000812C912C540140E094E6692E712C00E963
:1017100011E0242F30E02E54384FF901E370FF27F9
:10172000309789F4C901B3010E947E10892B31F4EE
:10173000C901B8010E947E10892B29F48EE691E040
:10174000A0E0B0E004C08DE691E0A0E0B0E0880E3B
:10175000991EAA1EBB1ED501C401AA27BB27C81605
:10176000D906EA06FB0610F04F5FD3CF4E833097C1
:1017700099F4C90164E670E00E947E10892B39F467
:10178000C90160E971E00E947E10892B29F48EE680
:1017900091E0A0E0B0E004C08DE691E0A0E0B0E010
:1017A000881A990AAA0ABB0AC818D908EA08FB08C5
:1017B000C90164E670E00E947E108C01C90160E9F5
:1017C00071E00E947E10A7E6B1E020E0213041F4F4
:1017D000309751F40115110529F4009729F402C03E
:1017E0004C9103C04DE101C04CE150E060E070E07D
:1017F000C416D506E606F70640F0C41AD50AE60A6E
:10180000F70A2F5F11962C3009F72F5F2D83C394B1
:10181000CC82DF91CF911F910F91FF90EF90DF90DD
:10182000CF90BF90AF909F908F907F906F900895D2
:10183000CF92DF92EF92FF92C0906202D09063024B
:10184000E0906402F0906502C616D706E806F90635
:1018500071F06B017C0146E652E00E94330BC092AE
:101860006202D0926302E0926402F0926502FF90FD
:10187000EF90DF90CF9008950E94180C809168023D
:1018800090E008950E94180C8091670290E00895FE
:101890000E94180C8091660290E008950E94180C36
:1018A00080916A0290E008950E94180C80916B026A
:1018B00090E008950E94180C80916C0290E08E5484
:1018C000984F08954F925F926F927F928F929F925E
:1018D000AF92BF92CF92DF92EF92FF920F931F933E
:1018E000CF93DF93FC011681A12FB0E020E833E312
:1018F00041EE51E00E94C3104B015C01C2EBD7E006
:101900009D0104E610E080E9E82EFF24F394CE0167
:10191000825B974082179307D4F4CE018370992796
:10192000892B99F4CE01B8010E947E10892B31F4E5
:10193000CE01B7010E947E10892B39F480E8880E11
:1019400081E5981E81E0A81EB11C2196E0CF45805C
:10195000512C2E54384FC90164E670E00E947E106D
:101960007C01C90160E971E00E947E106C0107E60C
:1019700011E0C1E0D0E03901A3E06A227724C41568
:10198000D50534F5C230D10589F46114710471F4C0
:10199000E114F10419F4C114D10441F4B0E88B0E40
:1019A000BBE39B1EB6E2AB1EB11C0EC0D8018C91EE
:1019B000A82FB0E020E831E541E050E00E94C310DC
:1019C000860E971EA81EB91E21960F5F1F4FD7CFF8
:1019D0004181228130E0A0E1BEE00E94B4106B01A1
:1019E0007C01242F30E0ACE3B0E00E94B410DC01B5
:1019F000CB018C0D9D1DAE1DBF1D20816C017D0195
:101A0000C20ED11CE11CF11CA481B0E0119720E8AA
:101A100031E541E050E00E94CE10DC01CB018C0D9D
:101A20009D1DAE1DBF1DBC01CD01680D791D8A1D18
:101A30009B1DDF91CF911F910F91FF90EF90DF9051
:101A4000CF90BF90AF909F908F907F906F905F905E
:101A50004F90089580919D0290E020919E02821BFC
:101A60009109089590919E0280919D02981750F4DB
:101A7000E92FF0E0E156FD4F208130E09F5F909329
:101A80009E0202C02FEF3FEFC9010895E0919E0230
:101A900080919D02E81730F4F0E0E156FD4F80811F
:101AA00090E008958FEF9FEF08950895CF92DF9211
:101AB000EF92FF920F931F93CF93DF937C01CB01A3
:101AC0008A0120917902222389F0EB016B01C40E77
:101AD000D51ECC15DD0569F06991D701ED91FC911A
:101AE0000190F081E02DC7010995F3CF642F0E948A
:101AF000190FC801DF91CF911F910F91FF90EF90C7
:101B0000DF90CF900895CF93DF931F92CDB7DEB7CC
:101B10006983209179022223D1F020917A02203228
:101B200040F021E030E0FC013383228380E090E04C
:101B300015C080917B02E82FF0E0E458FD4F9981B9
:101B400090838F5F80937B0280937A0205C061E06F
:101B5000CE0101960E94190F81E090E00F90DF9175
:101B6000CF910895FC011382128288EE93E0A0E0E9
:101B7000B0E084839583A683B78387E791E0918360
:101B80008083089510929E0210929D0210927B0213
:101B900010927A020C945D0E81E08093790260933A
:101BA0009C0210927B0210927A0208950C94CC0D44
:101BB0000F93062F21E040917A026CE772E080914A
:101BC0009C020E94C30E10927B0210927A02109225
:101BD00079020F9108954F925F926F927F92AF9228
:101BE000BF92CF92EF92FF920F931F93CF93DF9309
:101BF0005C01F62ED42F28013901EE2021F10E943C
:101C0000CC0DCE2DC43008F0C3E0C150C0F028E0A8
:101C1000C29FC0011124A301920104C056954795AB
:101C2000379527958A95D2F7CA01B901D501ED916B
:101C3000FC910190F081E02DC5010995E6CF60E0AF
:101C4000C5010E94D80D4D2FD13208F040E22C2D55
:101C50006FE972E08F2D0E947B0E10929E0280939E
:101C60009D02DF91CF911F910F91FF90EF90CF9048
:101C7000BF90AF907F906F905F904F900895CF92FC
:101C8000EF920F931F93C22EE12C00E010E0980119
:101C90000E94EB0D1F910F91EF90CF90089521E0DE
:101CA0000C943F0E21E00C943F0E61E00C94D80D93
:101CB0008DE692E00C94B20D089510922C0381E011
:101CC00080932A031092290361E082E10E940E08AA
:101CD00061E083E10E940E08E9EBF0E080818E7FF5
:101CE000808380818D7F808388E48093B80085E441
:101CF0008093BC000895413208F043C090912C03BA
:101D00009111FCCF91E090932C0320932A032FEFA5
:101D10002093BF0210920403240F20930303909397
:101D20002B0390912B03880F892B80932B03809199
:101D30002903813061F41092290380912B03809351
:101D4000BB008091BC0083FDF8CF85EC01C085EE1F
:101D50008093BC0080912C038130E1F380910403D7
:101D6000841710F440910403A5E0B3E0962FFB0123
:101D70008E2F891B841718F48D918193F9CF842FAE
:101D8000089580E008950F93413208F04AC0909181
:101D90002C039111FCCF32E030932C0300932A03E3
:101DA0003FEF3093BF021092040340930303562F7A
:101DB000A5E0B3E0FB013E2F351B341718F4319139
:101DC0003D93F9CF10922B0330912B03880F832B77
:101DD00080932B0380912903813061F410922903B1
:101DE00080912B038093BB008091BC0083FDF8CFD2
:101DF00085EC01C085EE8093BC00222321F0809108
:101E00002C038230D1F38091BF028F3F79F0809113
:101E1000BF02803241F08091BF02803331F094E004
:101E200005C091E003C092E001C093E0892F0F91BB
:101E300008954091E102262F30E0240F311D213218
:101E40003105DCF420912C032430C9F4FC0180E03E
:101E500090E0861758F43091E1022191DC01AD51F8
:101E6000BD4FA30FB11D2C930196F3CF8091E102DA
:101E7000680F6093E10280E0089581E0089582E0B8
:101E8000089585ED8093BC008091BC0084FDFCCF5B
:101E900010922C03089585EC8093BC0010922C03C3
:101EA00008951F920F920FB60F9211242F933F9314
:101EB0004F935F936F937F938F939F93AF93BF9352
:101EC000EF93FF938091B900887F803609F49EC01C
:101ED00078F5883209F45DC090F4803109F456C079
:101EE00038F4882309F4F5C0883009F44FC0F5C0F0
:101EF000883109F44EC0803209F45FC0EEC08034EE
:101F000009F46AC058F4803309F457C0883309F0E3
:101F1000E4C08093BF020E944B0FDFC0803509F4FC
:101F20004FC0883509F45DC0883409F0D6C0D3C0ED
:101F3000883909F4C4C0A8F4883709F467C038F4B4
:101F4000883609F463C0803709F460C0C6C0883899
:101F500009F4B5C0803909F45FC0803809F0BDC00C
:101F60005BC0803B09F483C038F4803A09F466C052
:101F7000883A09F47CC0B1C0803C09F4A4C0883C14
:101F800009F4A1C0883B09F487C0A7C080912B0346
:101F900010C09091040380910303981770F5E091AD
:101FA000040381E08E0F80930403F0E0EB5FFC4FAD
:101FB00080818093BB0085EC83C08093BF028BC07F
:101FC000E091040381E08E0F809304038091BB00B5
:101FD000F0E0EB5FFC4F808390910403809103035A
:101FE0006BC0E091040381E08E0F80930403809125
:101FF000BB00F0E0EB5FFC4F808380912A038111EE
:102000006AC081E08093290384EA5EC083E0809304
:102010002C031092C002CFCF8091C002803208F012
:102020004EC0E091C00281E08E0F8093C00280918B
:10203000BB00F0E0EF53FD4F8083BDCF0E944B0FFC
:102040008091C002803230F4E091C002F0E0EF53A2
:10205000FD4F10826091C00270E0E0912503F09185
:10206000260381EC92E009951092C00236C084E00C
:1020700080932C031092E2021092E102E091270378
:10208000F091280309958091E102811105C081E05A
:102090008093E1021092E302E091E20281E08E0F70
:1020A0008093E202F0E0ED51FD4F80818093BB0010
:1020B0009091E2028091E102981708F47CCF85E8C4
:1020C0008093BC000AC085EC8093BC0010922C0366
:1020D00004C01092BF020E94410FFF91EF91BF9187
:1020E000AF919F918F917F916F915F914F913F91B0
:1020F0002F910F900FBE0F901F90189597FB072EF2
:1021000016F4009407D077FD09D00E94D61007FC82
:1021100005D03EF4909581959F4F089570956195F7
:102120007F4F0895A1E21A2EAA1BBB1BFD010DC013
:10213000AA1FBB1FEE1FFF1FA217B307E407F50777
:1021400020F0A21BB30BE40BF50B661F771F881F53
:10215000991F1A9469F760957095809590959B01E9
:10216000AC01BD01CF010895A29FB001B39FC00192
:10217000A39F700D811D1124911DB29F700D811DB3
:102180001124911D08950E94B410A59F900DB49F35
:10219000900DA49F800D911D11240895B7FF0C94FC
:1021A000C3100E94C310821B930B0895AA1BBB1B74
:1021B00051E107C0AA1FBB1FA617B70710F0A61B47
:1021C000B70B881F991F5A95A9F780959095BC0168
:1021D000CD010895EE0FFF1F0590F491E02D0994B5
:1021E000F999FECF92BD81BDF89A992780B50895DF
:0421F000F894FFCF91
:1021F4000749064906300043757272656E7420748F
:10220400696D652069733A20005465737400202D4C
:102214002D3E20416C61726D20312100202D2D3E18
:1022240020416C61726D2032210000000000010425
:102234005805D1034804A303BD03AF030D0A006E80
:10224400616E00696E66006F76660000000000141F
:102254000B5805CF04D2041F1C1F1E1F1E1F1F1E58
:102264001F1E1F00000000830D560DCF04550D2ABC
:062274000D320D460D00C5
:00000001FF
