S013000041726475536B65746368332E73726563F0
S11300000C946E000C9469050C9490050C94960065
S11300100C9496000C9496000C9496000C94960004
S11300200C9496000C9496000C9496000C949600F4
S11300300C9496000C9496000C9496000C949600E4
S11300400C94B7050C9496000C94C4030C94F6031A
S11300500C9496000C9496000C9496000C949600C4
S11300600C942B0C0C9496004572724A616E466592
S1130070624D61724170724D61794A756E4A756C58
S11300804175675365704F63744E6F7644656300C2
S11300900000000800020100000304070000000043
S11300A0000000000102040810204080010204083E
S11300B010200102040810200404040404040404AD
S11300C0020202020202030303030303000000000E
S11300D0250028002B001C04A506320B11241FBE8A
S11300E0CFEFD8E0DEBFCDBF11E0A0E0B1E0EAE49D
S11300F0FCE102C005900D92A237B107D9F722E0C6
S1130100A2E7B1E001C01D92A13FB207E1F710E000
S1130110CEE6D0E004C02197FE010E941D0ECB362E
S1130120D107C9F70E94E8010C94230E0C94000037
S113013081E08093730108958F929F92AF92BF9252
S1130140CF92DF92EF92FF92CF93DF936A017B010C
S1130150CB01BA010E942D094C01990FAA08BB08D2
S1130160C701B6010E942D090A971CF066E471E0EC
S113017002C064E071E084E791E00E9489042AE00F
S113018030E0B501A40184E791E00E94EA0460E252
S113019084E791E00E948B04C701B6010E943909EB
S11301A0EC01C701B6010E9433090E940D08BC018D
S11301B084E791E00E94890466E171E084E791E0BC
S11301C00E948904AE01DD0F660B770B2AE030E054
S11301D084E791E00E94EA0460E284E791E00E94EF
S11301E08B04C701B6010E941B094C01990FAA0890
S11301F0BB08C701B6010E941B090A971CF066E4FC
S113020071E002C064E071E084E791E00E94890437
S11302102AE030E0B501A40184E791E00E94EA04F9
S11302206AE384E791E00E948B04C701B6010E944F
S113023021094C01990FAA08BB08C701B6010E9405
S113024021090A971CF066E471E002C064E071E0E1
S113025084E791E00E9489042AE030E0B501A4011A
S113026084E791E00E94EA046AE384E791E00E9453
S11302708B04C701B6010E9427094C01990FAA08F3
S1130280BB08C701B6010E9427090A971CF066E45F
S113029071E002C064E071E084E791E00E948904A7
S11302A02AE030E0B501A40184E791E0DF91CF9129
S11302B0FF90EF90DF90CF90BF90AF909F908F9082
S11302C00C94EA040F931F93CF93DF93CDB7DEB75B
S11302D027970FB6F894DEBF0FBECDBF09831A83EC
S11302E02B835E83142F4A3018F066E471E002C059
S11302F064E071E084E791E00E9489044AE050E000
S1130300612F84E791E00E94410560E284E791E077
S11303100E948B048E810E940D08BC0184E791E049
S11303200E94890460E284E791E00E948B041B81AF
S11303301A3018F066E471E002C064E071E084E70A
S113034091E00E9489044AE050E0612F84E791E043
S11303500E9441056AE384E791E00E948B041A81BC
S11303601A3018F066E471E002C064E071E084E7DA
S113037091E00E9489044AE050E0612F84E791E013
S11303800E9441056AE384E791E00E948B0419818D
S11303901A3018F066E471E002C064E071E084E7AA
S11303A091E00E9489044AE050E0612F84E791E0E3
S11303B00E94410584E791E027960FB6F894DEBFCA
S11303C00FBECDBFDF91CF911F910F910C9492047A
S11303D0CF93DF93CDB7DEB72A970FB6F894DEBF7D
S11303E00FBECDBF0E94620626E040E855E260E001
S11303F070E084E791E00E945F0352985A9A42E0C9
S113040050E068E970E080E00E94490564E08AE118
S113041092E00E94F30761E08AE192E00E94D30730
S113042041E061E08AE192E00E94AB0762E08AE188
S113043092E00E94D30741E062E08AE192E00E94E8
S1130440AB0766E071E084E791E00E9489040E94B2
S11304504407AB01BC0182E791E00E949C0084E761
S113046091E00E9492040E9444076B017C010E9467
S11304703909B82EC701B6010E942D09482FC701BA
S1130480B6014A870E943309582FC701B60159871C
S11304900E941B09282FC701B60128870E94210941
S11304A0182FC701B6010E94270989831A8328855A
S11304B02B834A854D8359855E83BF82082F3C81F7
S11304C06B2D82E791E00E94620110E0809173013C
S11304D08823A9F161E08AE192E00E94D3078111A7
S11304E009C062E08AE192E00E94D307882319F0F0
S11304F012E001C011E010927301113069F0123062
S1130500F9F40E944407AB01BC0182E791E00E9428
S11305109C0066E271E00AC00E944407AB01BC0182
S113052082E791E00E949C0068E171E084E791E039
S11305300E94890484E791E00E94920401C010E0C3
S113054064E670E080E090E00E942606BFCFFC01E4
S1130550918D228D892F90E0805C9F4F821B9109A1
S11305608F7399270895FC01918D828D981731F02E
S1130570828DE80FF11D858D90E008958FEF9FEF38
S11305800895FC01918D828D981761F0828DDF01B1
S1130590A80FB11D5D968C91928D9F5F9F73928F72
S11305A090E008958FEF9FEF0895FC01848DDF01A3
S11305B0A80FB11DA35ABF4F2C91848D90E00196D2
S11305C08F739927848FA689B7892C93A089B189C1
S11305D08C9180648C93938D848D981306C00288CB
S11305E0F389E02D80818F7D80830895CF93DF93FD
S11305F0EC01888D8823C9F0EA89FB89808185FD17
S113060005C0A889B9898C9186FD0FC00FB607FC77
S1130610F5CF808185FFF2CFA889B9898C9185FFB8
S1130620EDCFCE010E94D502E7CFDF91CF9108959F
S1130630EF92FF920F931F93CF93DF93EC0181E02E
S1130640888F9B8D8C8D981305C0E889F9898081EA
S113065085FD24C0F62E0B8D10E00F5F1F4F0F7326
S11306601127E02E8C8DE8120CC00FB607FCFACFD0
S1130670E889F989808185FFF5CFCE010E94D502F2
S1130680F1CF8B8DFE01E80FF11DE35AFF4FF0828D
S11306900B8FEA89FB898081806207C0EE89FF891C
S11306A06083E889F98980818064808381E090E0B7
S11306B0DF91CF911F910F91FF90EF900895CF920A
S11306C0DF92EF92FF921F93CF93DF93EC016A01C5
S11306D07B01122FE889F98982E080834115514E0C
S11306E061057105B1F060E079E08DE390E0A70168
S11306F096010E94C50DDA01C9010197A109B1094A
S1130700B695A79597958795AC01411580E1580753
S1130710A8F0E889F989108260E874E88EE190E035
S1130720A70196010E94C50DBA01A90141505109C2
S1130730610971097695679557954795EC85FD850F
S11307405083EE85FF854083188EEC89FD891083E4
S1130750EA89FB89808180618083EA89FB898081C1
S113076088608083EA89FB89808180688083EA8944
S1130770FB8980818F7D8083DF91CF911F91FF90D2
S1130780EF90DF90CF9008951F920F920FB60F92C3
S113079011242F938F939F93EF93FF93E091840100
S11307A0F09185018081E0918A01F0918B0182FDB5
S11307B012C0908180918D018F5F8F7320918E0183
S11307C0821751F0E0918D01F0E0EC58FE4F958FC7
S11307D080938D0101C08081FF91EF919F918F9152
S11307E02F910F900FBE0F901F9018951F920F928C
S11307F00FB60F9211242F933F934F935F936F93F0
S11308007F938F939F93AF93BF93EF93FF9384E76B
S113081091E00E94D502FF91EF91BF91AF919F911A
S11308208F917F916F915F914F913F912F910F9095
S11308300FBE0F901F901895E4E7F1E01382128227
S113084088EE93E0A0E0B0E084839583A683B78329
S113085088E391E09183808385EC90E09587848799
S113086084EC90E09787868780EC90E0918B808B76
S113087081EC90E0938B828B82EC90E0958B848B5F
S113088086EC90E0978B868B118E128E138E148ECD
S11308900895CF92DF92EF92FF920F931F93CF931D
S11308A0DF936C017A018B01C0E0D0E0CE15DF0547
S11308B089F0D8016D918D01D601ED91FC910190E3
S11308C0F081E02DC6010995892B11F47E0102C047
S11308D02196ECCFC701DF91CF911F910F91FF902B
S11308E0EF90DF90CF9008956115710579F0FB01C9
S11308F001900020E9F73197AF01461B570BDC014B
S1130900ED91FC910280F381E02D099480E090E068
S113091008950C947404DC01ED91FC910190F08134
S1130920E02D099464E471E00C9474048F929F9216
S1130930AF92BF92CF92DF92EF92FF920F931F93E9
S1130940CF93DF93CDB7DEB7A1970FB6F894DEBF90
S11309500FBECDBF7C01D42EC52EDB0119A22230DF
S113096008F42AE08E010F5D1F4F822E912CA12CDA
S1130970B12C6D2D7C2DCD01A50194010E94C50DD6
S1130980D22EC32EDA01015011096A307105810596
S1130990910510F4605D01C0695CF8016083232B4C
S11309A0242B252B31F7B801C7010E947404A196AA
S11309B00FB6F894DEBF0FBECDBFDF91CF911F916C
S11309C00F91FF90EF90DF90CF90BF90AF909F90EA
S11309D08F900895CF92DF92EF92FF920F931F931F
S11309E0CF93DF93EC016A017B012115310579F482
S11309F0E881F9810190F081E02D642FDF91CF919E
S1130A001F910F91FF90EF90DF90CF9009942A30BF
S1130A103105E9F477FF1AC06DE20E948B048C0162
S1130A2044275527BA014C195D096E097F092AE04C
S1130A30CE010E949604800F911FDF91CF911F91E8
S1130A400F91FF90EF90DF90CF9008952AE0B701C7
S1130A50A601CE01DF91CF911F910F91FF90EF90EE
S1130A60DF90CF900C9496042115310541F4DC01FC
S1130A70ED91FC910190F081E02D642F09940C9488
S1130A8096049A01462F50E060E070E00C9434051F
S1130A9008958230E8F4E82FF0E0EE0FFF1FE050F5
S1130AA0FF4F71836083813041F0809169008C7FB6
S1130AB0482B40936900E89A089580916900440F97
S1130AC0551F440F551F837F482B40936900E99AB3
S1130AD008951F920F920FB60F9211242F933F93F4
S1130AE04F935F936F937F938F939F93AF93BF9332
S1130AF0EF93FF93E0910001F09101010995FF91BB
S1130B00EF91BF91AF919F918F917F916F915F9181
S1130B104F913F912F910F900FBE0F901F901895FA
S1130B201F920F920FB60F9211242F933F934F935E
S1130B305F936F937F938F939F93AF93BF93EF9341
S1130B40FF93E0910201F09103010995FF91EF9168
S1130B50BF91AF919F918F917F916F915F914F91D1
S1130B603F912F910F900FBE0F901F9018951F92D9
S1130B700F920FB60F9211242F933F938F939F934D
S1130B80AF93BF938091120290911302A09114022B
S1130B90B09115023091110223E0230F2D3720F478
S1130BA00196A11DB11D05C026E8230F0296A11DC3
S1130BB0B11D209311028093120290931302A0930B
S1130BC01402B09315028091160290911702A0911D
S1130BD01802B09119020196A11DB11D809316024D
S1130BE090931702A0931802B0931902BF91AF918A
S1130BF09F918F913F912F910F900FBE0F901F9057
S1130C0018953FB7F8948091160290911702A0911D
S1130C101802B091190226B5A89B05C02F3F19F000
S1130C200196A11DB11D3FBFBA2FA92F982F882768
S1130C30820F911DA11DB11DBC01CD0142E0660FC3
S1130C40771F881F991F4A95D1F708958F929F9215
S1130C50AF92BF92CF92DF92EF92FF926B017C0131
S1130C600E9401064B015C01C114D104E104F104AA
S1130C7001F10E94360B0E940106DC01CB018819A8
S1130C809909AA09BB09883E9340A105B10560F3FF
S1130C9021E0C21AD108E108F10888EE880E83E049
S1130CA0981EA11CB11CC114D104E104F10419F76C
S1130CB0DBCFFF90EF90DF90CF90BF90AF909F90ED
S1130CC08F900895789484B5826084BD84B58160E2
S1130CD084BD85B5826085BD85B5816085BDEEE640
S1130CE0F0E0808181608083E1E8F0E0108280811F
S1130CF082608083808181608083E0E8F0E080818D
S1130D0081608083E1EBF0E0808184608083E0EBAC
S1130D10F0E0808181608083EAE7F0E08081846094
S1130D2080838081826080838081816080838081F0
S1130D30806880831092C1000895982F92959F70C7
S1130D402AEF929F800D1124089581E392E00C9480
S1130D509C0AEF92FF920F931F93CF93DF9300D0DF
S1130D60CDB7DEB7062F122F68E670E081E392E07C
S1130D7049835A830E94B00A602F81E392E00E9463
S1130D805D0A4981042FE42E5A81F52E8E2D801B95
S1130D90811740F4F70161917F0181E392E00E94A1
S1130DA05D0AF4CF81E392E00F900F90DF91CF9131
S1130DB01F910F91FF90EF900C942F0BCF93DF9323
S1130DC01F92CDB7DEB7498321E0AE014F5F5F4F7D
S1130DD00E94A9060F90DF91CF910895CF93DF93DE
S1130DE0EC0168E670E081E392E00E94B00A60E002
S1130DF081E392E00E945D0A81E392E00E942F0B5E
S1130E00882319F080931B023CC047E050E068E659
S1130E1070E081E392E00E942C0B81E392E00E9457
S1130E20090A8F770E949D06888381E392E00E94DD
S1130E30090A0E949D06898381E392E00E94090ABF
S1130E408F7B0E949D068A8381E392E00E94090AB7
S1130E508B8381E392E00E94090A0E949D068C83A1
S1130E6081E392E00E94090A8F770E949D068D8398
S1130E7081E392E00E94090A0E949D06825E8E83AD
S1130E8080E0DF91CF910895CF93DF93CDB7DEB7A4
S1130E9027970FB6F894DEBF0FBECDBFCE010196E3
S1130EA00E94EE06811105C0CE0101960E944109FF
S1130EB003C060E070E0CB0127960FB6F894DEBF64
S1130EC00FBECDBFDF91CF910895EF92FF920F93A4
S1130ED01F93CF93DF93C62F042FE52E122F68E6BE
S1130EE070E081E392E00E94B00A6C2F81E392E00B
S1130EF00E945D0A81E392E00E942F0B811114C0CD
S1130F00412F68E681E392E00E94290BF02EC02F66
S1130F10DE2D8C2F8F19811730F481E392E00E942B
S1130F20090A8993F6CF80E0DF91CF911F910F9149
S1130F30FF90EF900895CF93DF931F92CDB7DEB764
S1130F4021E0AE014F5F5F4F0E94650789810F90DA
S1130F50DF91CF910895FF920F931F93CF93DF9367
S1130F601F92CDB7DEB78C01F62E6EE049830E9446
S1130F709B07FA9421E030E001C0220FFA94EAF7CB
S1130F804981442319F0482F422B03C02095482F50
S1130F9042236EE0C8010F90DF91CF911F910F9112
S1130FA0FF900C94DE060F931F93CF938C01C62FF2
S1130FB06FE00E949B07C15021E030E001C0220F86
S1130FC0CA95EAF7982F922349F02095482F422397
S1130FD06FE0C8010E94DE0681E001C080E0CF918D
S1130FE01F910F9108950F931F93CF938C01C62FD8
S1130FF06EE00E949B07482FC43010F0446006C086
S1131000437E88E0C89FB0011124462B6EE0C801DE
S1131010CF911F910F910C94DE0623E0829FC001B3
S11310201124ACE1B2E020E030E0F901E80FF91F4F
S1131030E859FF4FE491ED932F5F3F4F2330310583
S1131040A1F710921F028CE192E008956F927F92B3
S11310508F929F92AF92BF92CF92DF92EF92FF92C4
S11310600F931F93CF93DF93EA012CE3C22ED12C6D
S1131070E12CF12CA70196010E94C50D6883CA01D9
S1131080B901A70196010E94C50D6983CA01B9017E
S113109028E130E040E050E00E94C50D69017A018A
S11310A06A83CA01B9016C5F7F4F8F4F9F4F27E05E
S11310B030E040E050E00E94C50D6F5F6B83812CEF
S11310C0912C540140E034E6632E712C00E911E0C8
S11310D0242F30E02E54384FF901E370FF27309766
S11310E089F4C901B3010E94B10D892B31F4C901FE
S11310F0B8010E94B10D892B29F48EE691E0A0E09D
S1131100B0E004C08DE691E0A0E0B0E0880E991E46
S1131110AA1EBB1ED501C401AA27BB27C816D9061F
S1131120EA06FB0610F04F5FD3CF4E83309799F455
S1131130C90164E670E00E94B10D892B39F4C9013C
S113114060E971E00E94B10D892B29F48EE691E0EB
S1131150A0E0B0E004C08DE691E0A0E0B0E0881A21
S1131160990AAA0ABB0AC818D908EA08FB08C901DF
S113117064E670E00E94B10D8C01C90160E971E080
S11311800E94B10DA5E5B1E020E0213041F4309793
S113119051F40115110529F4009729F402C04C916A
S11311A003C04DE101C04CE150E060E070E0C416C2
S11311B0D506E606F70640F0C41AD50AE60AF70A89
S11311C02F5F11962C3009F72F5F2D83C394CC82A7
S11311D0DF91CF911F910F91FF90EF90DF90CF900F
S11311E0BF90AF909F908F907F906F900895CF9213
S11311F0DF92EF92FF92C0902602D0902702E090F7
S11312002802F09029026C157D058E059F0571F06A
S11312106B017C014AE252E00E942608C092260239
S1131220D0922702E0922802F0922902FF90EF90D8
S1131230DF90CF9008950E94F70880912C0290E0EF
S113124008950E94F70880912B0290E008950E946F
S1131250F70880912A0290E008950E94F70880918F
S11312602E0290E008950E94F70880912F0290E0EA
S113127008950E94F7088091300290E08E54984FB0
S113128008956F927F928F929F92AF92BF92CF9266
S1131290DF92EF92FF920F931F93CF93DF93EC01B2
S11312A0EE81AE2FB0E020E833E341EE51E00E943E
S11312B0F60D4B015C0122EB37E0FD0104E610E082
S11312C080E9E82EFF24F394C901825B97408E17CE
S11312D09F07DCF4C90183709927892B99F4C9010C
S11312E0B8010E94B10D892B31F4C901B7010E94E4
S11312F0B10D892B39F480E8880E81E5981E81E0D0
S1131300A81EB11C2F5F3F4FDFCF6D80712CEE54B0
S1131310F84FCF0164E670E00E94B10D7C01CF016B
S113132060E971E00E94B10D6C0101E010E0E3702E
S1131330FF27061517052CF50230110581F43097A7
S113134071F4E114F10419F4C114D10441F480E8F6
S1131350880E8BE3981E86E2A81EB11C0FC0D8012C
S1131360AC5ABE4FAC91B0E020E831E541E050E02A
S11313700E94F60D860E971EA81EB91E0F5F1F4F02
S1131380D8CF49812A8130E0A0E1BEE00E94E70D78
S11313906B017C01242F30E0ACE3B0E00E94E70D48
S11313A0DC01CB018C0D9D1DAE1DBF1D28816C0180
S11313B07D01C20ED11CE11CF11CAC81B0E011977F
S11313C020E831E541E050E00E94010EDC01CB0150
S11313D08C0D9D1DAE1DBF1DBC01CD01680D791D79
S11313E08A1D9B1DDF91CF911F910F91FF90EF906C
S11313F0DF90CF90BF90AF909F908F907F906F9031
S113140008958091610290E020916202821B91090B
S113141008959091620280916102981750F4E92F27
S1131420F0E0ED59FD4F208130E09F5F9093620220
S113143002C02FEF3FEFC9010895E091620280914D
S11314406102E81730F4F0E0ED59FD4F808190E03F
S113145008958FEF9FEF08950895CF92DF92EF9252
S1131460FF920F931F93CF93DF937C01262F972F27
S11314708A0180913D02882391F0C62FD72F6E01F7
S1131480C40ED51ECC15DD0571F06991D701ED911F
S1131490FC910190F081E02DC7010995F3CF642FF1
S11314A0822F0E94F30BC801DF91CF911F910F91FE
S11314B0FF90EF90DF90CF900895CF93DF931F922A
S11314C0CDB7DEB7698320913D022223D1F020916C
S11314D03E02203240F021E030E0FC0133832283DD
S11314E080E090E015C080913F02E82FF0E0E05CDE
S11314F0FD4F998190838F5F80933F0280933E02DA
S113150005C061E0CE0101960E94F30B81E090E0FA
S11315100F90DF91CF910895FC011382128288EE1F
S113152093E0A0E0B0E084839583A683B78385E647
S113153091E0918380830895109262021092610277
S113154010923F0210923E020C94370B81E080937C
S11315503D026093600210923F0210923E02089591
S11315600C94A60A0F93062F21E040913E0260E4FA
S113157072E0809160020E949D0B10923F021092D3
S11315803E0210923D020F9108954F925F926F9226
S11315907F92AF92BF92CF92EF92FF920F931F93DD
S11315A0CF93DF935C01F62ED42F28013901EE206E
S11315B021F10E94A60ACE2DC43008F0C3E0C15028
S11315C0C0F0D501ED91FC91B8E0CB9FC00111248E
S11315D0A301920104C056954795379527958A959E
S11315E0D2F7CA01B9010190F081E02DC501099536
S11315F0E6CF60E0C5010E94B20A4D2FD13208F057
S113160040E22C2D63E672E08F2D0E94550B109260
S1131610620280936102DF91CF911F910F91FF903D
S1131620EF90CF90BF90AF907F906F905F904F906E
S11316300895CF92EF920F931F93C22EE12C00E0F6
S113164010E098010E94C50A1F910F91EF90CF906E
S1131650089521E00C94190B21E00C94190B61E01E
S11316600C94B20A81E392E00C948C0A08951092CF
S1131670F00281E08093EE021092ED0261E082E1DB
S11316800E94810D61E083E10E94810DE9EBF0E0AD
S113169080818E7F808380818D7F808388E48093A6
S11316A0B80085E48093BC000895413208F043C03B
S11316B09091F0029111FCCF91E09093F00220936D
S11316C0EE022FEF209383021092C802240F20937E
S11316D0C7029093EF029091EF02880F892B8093B9
S11316E0EF028091ED02813061F41092ED0280915D
S11316F0EF028093BB008091BC0083FDF8CF85ECA2
S113170001C085EE8093BC008091F0028130E1F34A
S11317108091C802841710F44091C80229EC32E089
S1131720FB01D9018A2F821B841718F48D918193B0
S1131730F9CF842F089580E008950F93413208F083
S11317404AC09091F0029111FCCF32E03093F00244
S11317500093EE023FEF309383021092C80240934D
S1131760C702FB0169EC72E0DB013A2F361B341728
S113177018F431913D93F9CF1092EF023091EF02BA
S1131780880F832B8093EF028091ED02813061F406
S11317901092ED028091EF028093BB008091BC0017
S11317A083FDF8CF85EC01C085EE8093BC00222335
S11317B021F08091F0028230D1F3809183028F3F37
S11317C079F080918302803241F0809183028033EA
S11317D031F094E005C091E003C092E001C093E0D1
S11317E0892F0F9108954091A502262F30E0240FF0
S11317F0311D21323105DCF42091F0022430C9F48A
S1131800FC0180E090E0861758F43091A502219104
S1131810DC01A955BD4FA30FB11D2C930196F3CF45
S11318208091A502680F6093A50280E0089581E08D
S1131830089582E0089585ED8093BC008091BC00FA
S113184084FDFCCF1092F002089585EC8093BC00D7
S11318501092F00208951F920F920FB60F92112466
S11318602F933F934F935F936F937F938F939F93A4
S1131870AF93BF93EF93FF938091B900887F803635
S113188009F49EC078F5883209F45DC090F4803183
S113189009F456C038F4882309F4F5C0883009F4F3
S11318A04FC0F5C0883109F44EC0803209F45FC0DE
S11318B0EEC0803409F46AC058F4803309F457C088
S11318C0883309F0E4C0809383020E94250CDFC0B2
S11318D0803509F44FC0883509F45DC0883409F0B7
S11318E0D6C0D3C0883909F4C4C0A8F4883709F431
S11318F067C038F4883609F463C0803709F460C0DF
S1131900C6C0883809F4B5C0803909F45FC080388E
S113191009F0BDC05BC0803B09F483C038F4803A51
S113192009F466C0883A09F47CC0B1C0803C09F46B
S1131930A4C0883C09F4A1C0883B09F487C0A7C0AF
S11319408091EF0210C09091C8028091C70298174D
S113195070F5E091C80281E08E0F8093C802F0E038
S1131960E753FD4F80818093BB0085EC83C0809357
S113197083028BC0E091C80281E08E0F8093C8027D
S11319808091BB00F0E0E753FD4F80839091C80243
S11319908091C7026BC0E091C80281E08E0F8093F2
S11319A0C8028091BB00F0E0E753FD4F8083809133
S11319B0EE0281116AC081E08093ED0284EA5EC088
S11319C083E08093F00210928402CFCF809184024E
S11319D0803208F04EC0E091840281E08E0F809343
S11319E084028091BB00F0E0EB57FD4F8083BDCFB4
S11319F00E94250C80918402803230F4E0918402AC
S1131A00F0E0EB57FD4F10826091840270E0E091AA
S1131A10E902F091EA0285E892E0099510928402C5
S1131A2036C084E08093F0021092A6021092A502C0
S1131A30E091EB02F091EC0209958091A5028111ED
S1131A4005C081E08093A5021092A702E091A6024E
S1131A5081E08E0F8093A602F0E0E955FD4F80816E
S1131A608093BB009091A6028091A502981708F478
S1131A707CCF85E88093BC000AC085EC8093BC00D1
S1131A801092F00204C0109283020E941B0CFF917A
S1131A90EF91BF91AF919F918F917F916F915F91E2
S1131AA04F913F912F910F900FBE0F901F9018955B
S1131AB0833081F028F4813099F08230A1F00895C8
S1131AC08730A9F08830B9F08430D1F48091800057
S1131AD08F7D03C0809180008F778093800008956C
S1131AE084B58F7702C084B58F7D84BD08958091BD
S1131AF0B0008F7703C08091B0008F7D8093B000D9
S1131B0008951F93CF93DF93282F30E0F901E05716
S1131B10FF4F8491F901EC55FF4FD491F901E8543A
S1131B20FF4FC491CC23C9F0162F81110E94580D88
S1131B30EC2FF0E0EE0FFF1FE453FF4FA591B4919B
S1131B408FB7F894111105C09C91ED2FE095E9230E
S1131B5002C0EC91ED2BEC938FBFDF91CF911F91DD
S1131B60089597FB072E16F4009407D077FD09D04B
S1131B700E94090E07FC05D03EF4909581959F4F75
S1131B800895709561957F4F0895A1E21A2EAA1BBE
S1131B90BB1BFD010DC0AA1FBB1FEE1FFF1FA21719
S1131BA0B307E407F50720F0A21BB30BE40BF50B16
S1131BB0661F771F881F991F1A9469F7609570959F
S1131BC0809590959B01AC01BD01CF010895A29F22
S1131BD0B001B39FC001A39F700D811D1124911DFD
S1131BE0B29F700D811D1124911D08950E94E70D6F
S1131BF0A59F900DB49F900DA49F800D911D11245D
S1131C000895B7FF0C94F60D0E94F60D821B930BFA
S1131C100895AA1BBB1B51E107C0AA1FBB1FA6172F
S1131C20B70710F0A61BB70B881F991F5A95A9F781
S1131C3080959095BC01CD010895EE0FFF1F05908E
S10D1C40F491E02D0994F894FFCF0D
S1131C4A48054805300043757272656E74207469DC
S1131C5A6D652069733A2000202D2D3E20416C6168
S1131C6A726D20312100202D2D3E20416C61726D50
S1131C7A203221000000000018034904A702C1020F
S1131C8AB302F6020D0A006E616E00696E66006F99
S1131C9A7666002E001F1C1F1E1F1E1F1F1E1F1EDE
S1131CAA1F000000005D0A2D0A010A090A1D0A2CF8
S1051CBA0A001A
S9030000FC
