S013000041726475536B65746368332E73726563F0
S11300000C946F000C940B060C9432060C9497001D
S11300100C9497000C9497000C9497000C94970000
S11300200C9497000C9497000C9497000C949700F0
S11300300C9497000C9497000C9497000C949700E0
S11300400C9459060C9497000C9474040C94A60414
S11300500C9497000C9497000C9497000C949700C0
S11300600C94D60C0C9497004572724A616E4665E6
S1130070624D61724170724D61794A756E4A756C58
S11300804175675365704F63744E6F7644656300C2
S11300900000000800020100000304070000000043
S11300A0000000000102040810204080010204083E
S11300B010200102040810200404040404040404AD
S11300C0020202020202030303030303000000000E
S11300D0250028002B004A03CC044707DD0B11241C
S11300E01FBECFEFD8E0DEBFCDBF11E0A0E0B1E08E
S11300F0EEEAFDE102C005900D92A237B107D9F7EF
S113010023E0A2E7B1E001C01D92A030B207E1F7FD
S113011010E0CFE6D0E004C02197FE010E94C70E94
S1130120CB36D107C9F70E94DE020C94D50E0C948D
S1130130000081E0809382010895CF93DF93EC0166
S1130140FB012481358140815181628173810E9448
S1130150A205CE01DF91CF910895EF92FF920F9304
S11301601F93CF93DF93CDB7DEB727970FB6F894DD
S1130170DEBF0FBECDBF5E83F22EE42E89E084176E
S113018018F467E471E002C065E071E083E891E08F
S11301900E9438054AE050E06E2D83E891E00E9409
S11301A09B0560E283E891E00E943A058E810E94FB
S11301B09F08BC0183E891E00E94380560E283E86F
S11301C091E00E943A0589E08F1518F467E471E024
S11301D002C065E071E083E891E00E9438054AE0DE
S11301E050E06F2D83E891E00E949B056AE383E869
S11301F091E00E943A051A3018F067E471E002C0F9
S113020065E071E083E891E00E9438054AE050E03F
S1130210612F83E891E00E949B056AE383E891E003
S11302200E943A050A3018F067E471E002C065E004
S113023071E083E891E00E9438054AE050E0602FC5
S113024083E891E00E949B0583E891E027960FB62E
S1130250F894DEBF0FBECDBFDF91CF911F910F91F8
S1130260FF90EF900C944105CF92DF92EF92FF92B2
S11302700F931F93CF93DF9300D000D000D0CDB75E
S1130280DEB76A017B01CB01BA010E94D309092EB2
S1130290000CAA0BBB0B89839A83AB83BC838AE0D3
S11302A090E09E838D83C701B6010E94D3090A970B
S11302B01CF067E471E002C065E071E083E891E05E
S11302C00E943805BE016F5F7F4F83E891E00E9472
S11302D09D0060E20E943A05C701B6010E94DF0951
S11302E0092E000CAA0BBB0B89839A83AB83BC83B6
S11302F00AE010E01E830D83C701B6010E94D909EC
S11303000E949F08BC0183E891E00E94380567E1E0
S113031071E083E891E00E943805BE016F5F7F4F72
S113032083E891E00E949D0060E20E943A05C701C3
S1130330B6010E94C109092E000CAA0BBB0B8983CC
S11303409A83AB83BC831E830D83C701B6010E94CD
S1130350C1090A971CF067E471E002C065E071E02E
S113036083E891E00E943805BE016F5F7F4F83E808
S113037091E00E949D006AE30E943A05C701B6011C
S11303800E94C709092E000CAA0BBB0B89839A8310
S1130390AB83BC838AE090E09E838D83C701B60162
S11303A00E94C7090A971CF067E471E002C065E087
S11303B071E083E891E00E943805BE016F5F7F4FD2
S11303C083E891E00E949D006AE30E943A05C70118
S11303D0B6010E94CD09092E000CAA0BBB0B898320
S11303E09A83AB83BC838AE090E09E838D83C701AC
S11303F0B6010E94CD090A971CF067E471E002C0BF
S113040065E071E083E891E00E943805BE016F5F0A
S11304107F4F83E891E00E949D0026960FB6F894E2
S1130420DEBF0FBECDBFDF91CF911F910F91FF9023
S1130430EF90DF90CF9008959F92AF92BF92CF92AA
S1130440DF92EF92FF920F931F93CF93DF93CDB779
S1130450DEB727970FB6F894DEBF0FBECDBF6A0193
S11304607B01CB01BA010E94DF09182FC701B60135
S11304700E94D309B82EC701B6010E94D909082FDA
S1130480C701B6010E94C109A82EC701B6010E9486
S1130490C709982EC701B6010E94CD095C81282F97
S11304A0392D4A2D6B2D702F812F90E027960FB692
S11304B0F894DEBF0FBECDBFDF91CF911F910F9196
S11304C0FF90EF90DF90CF90BF90AF909F900895F2
S11304D0EF92FF920F931F93CF93DF93EC01529807
S11304E05A9A42E050E069E970E080E00E94EB052E
S11304F064E089E292E00E94850861E089E292E08A
S11305000E94650841E061E089E292E00E944408AB
S113051062E089E292E00E94650841E062E089E2DB
S113052092E00E9444080091810110E07E0187E07E
S1130530E80EF11C0C1B1D0BC8018C0F9D1F0E94A3
S1130540CD0E8993CE15DF05B9F70091000110E0B7
S1130550C0E0D0E0CE01800F911F0E94CD0EF701C4
S113056081937F012196C730D105A1F7DF91CF9107
S11305701F910F91FF90EF900895CF93DF93809197
S113058082018823B1F0EB0161E089E292E00E94EC
S11305906508882311F081E008C062E089E292E0F6
S11305A00E946508882311F082E0888310928201FA
S11305B002C0FB011082DF91CF910895CF93DF93A6
S11305C0CDB7DEB728970FB6F894DEBF0FBECDBF08
S11305D00E94040726E040E855E260E070E083E80A
S11305E091E00E940F0483E791E00E94680218865C
S11305F067E071E083E891E00E9438050E94DD071E
S1130600AB01BC0182E791E00E94340183E891E0F0
S11306100E9441050E94DD07AB01BC0182E791E025
S11306200E941C0289019A01AB01682F82E791E0C4
S11306300E94AD00BE01685F7F4F83E791E00E9496
S1130640BD028885813069F08230E9F40E94DD07BB
S1130650AB01BC0182E791E00E94340167E271E0E2
S11306600AC00E94DD07AB01BC0182E791E00E9451
S1130670340169E171E083E891E00E94380583E880
S113068091E00E94410564E670E080E090E00E9401
S1130690C806D0CFE3E7F1E0108211821282138200
S11306A01782108611861286109272010895FC0139
S11306B0918D228D892F90E0805C9F4F821B910940
S11306C08F7399270895FC01918D828D981731F0CD
S11306D0828DE80FF11D858D90E008958FEF9FEFD7
S11306E00895FC01918D828D981761F0828DDF0150
S11306F0A80FB11D5D968C91928D9F5F9F73928F11
S113070090E008958FEF9FEF0895FC01848DDF0141
S1130710A80FB11DA35ABF4F2C91848D90E0019670
S11307208F739927848FA689B7892C93A089B1895F
S11307308C9180648C93938D848D981306C0028869
S1130740F389E02D80818F7D80830895EF92FF925D
S11307500F931F93CF93DF93EC0181E0888F9B8DE0
S11307608C8D981305C0E889F989808185FD24C0A2
S1130770F62E0B8D10E00F5F1F4F0F731127E02E25
S11307808C8DE8120CC00FB607FCFACFE889F98902
S1130790808185FFF5CFCE010E948503F1CF8B8D3B
S11307A0FE01E80FF11DE35AFF4FF0820B8FEA8937
S11307B0FB898081806207C0EE89FF896083E889B4
S11307C0F98980818064808381E090E0DF91CF911A
S11307D01F910F91FF90EF900895CF93DF93EC0159
S11307E0888D8823C9F0EA89FB89808185FD05C04D
S11307F0A889B9898C9186FD0FC00FB607FCF5CF87
S1130800808185FFF2CFA889B9898C9185FFEDCFCE
S1130810CE010E948503E7CFDF91CF910895CF9257
S1130820DF92EF92FF921F93CF93DF93EC016A0163
S11308307B01122FE889F98982E080834115514EAA
S113084061057105B1F060E079E08DE390E0A70106
S113085096010E946F0EDA01C9010197A109B1093D
S1130860B695A795979587959C01211580E1380742
S1130870A8F0E889F989108260E874E88EE190E0D4
S1130880A70196010E946F0EDA01C9010197A1091F
S1130890B109B695A795979587959C01EC85FD853B
S11308A03083EE85FF852083188EEC89FD891083C3
S11308B0EA89FB89808180618083EA89FB89808160
S11308C088608083EA89FB89808180688083EA89E3
S11308D0FB8980818F7D8083DF91CF911F91FF9071
S11308E0EF90DF90CF9008951F920F920FB60F9262
S11308F011242F938F939F93EF93FF93E091930190
S1130900F09194018081E0919901F0919A0182FD26
S113091012C0908180919C018F5F8F7320919D0103
S1130920821751F0E0919C01F0E0ED57FE4F958F56
S113093080939C0101C08081FF91EF919F918F91E1
S11309402F910F900FBE0F901F9018951F920F922A
S11309500FB60F9211242F933F934F935F936F938E
S11309607F938F939F93AF93BF93EF93FF9383E80A
S113097091E00E948503FF91EF91BF91AF919F9108
S11309808F917F916F915F914F913F912F910F9034
S11309900FBE0F901F901895E3E8F1E013821282C6
S11309A088EE93E0A0E0B0E084839583A683B783C8
S11309B089E391E09183808385EC90E09587848737
S11309C084EC90E09787868780EC90E0918B808B15
S11309D081EC90E0938B828B82EC90E0958B848BFE
S11309E086EC90E0978B868B118E128E138E148E6C
S11309F00895CF92DF92EF92FF920F931F93CF93BC
S1130A00DF936C017A018B01C0E0D0E0CE15DF05E5
S1130A1081F0D8016D918D01D601ED91FC91019089
S1130A20F081E02DC6010995892B11F02196EECFB6
S1130A307E01C701DF91CF911F910F91FF90EF903D
S1130A40DF90CF9008956115710579F0FB01019055
S1130A500020E9F73197AF01461B570BDC01ED91FC
S1130A60FC910280F381E02D099480E090E00895E8
S1130A700C942305DC01ED91FC910190F081E02DB3
S1130A80099465E471E00C9423058F929F92AF92D0
S1130A90BF92EF92FF920F931F93CF93DF93CDB743
S1130AA0DEB7A1970FB6F894DEBF0FBECDBF7C01B1
S1130AB0FA01CB0119A2223008F42AE08E010F5D5D
S1130AC01F4F822E912CA12CB12CBF01A5019401A2
S1130AD00E946F0EF901CA01015011096A3010F425
S1130AE0605D01C0695CD8016C93232B242B252BFA
S1130AF061F7B801C7010E942305A1960FB6F894C7
S1130B00DEBF0FBECDBFDF91CF911F910F91FF903C
S1130B10EF90BF90AF909F908F900895211531056D
S1130B2041F4DC01ED91FC910190F081E02D642F02
S1130B3009940C9445059A01462F50E060E070E05A
S1130B400C948E05CF92DF92EF92FF920F931F9336
S1130B50CF93DF932115310581F4DC01ED91FC91F4
S1130B600190F081E02D642FDF91CF911F910F91BF
S1130B70FF90EF90DF90CF9009942A30310501F572
S1130B8077FF1DC06A017B01EC016DE20E943A050A
S1130B908C0144275527BA014C195D096E097F0958
S1130BA02AE0CE010E944505800F911FDF91CF916D
S1130BB01F910F91FF90EF90DF90CF9008952AE05E
S1130BC0DF91CF911F910F91FF90EF90DF90CF9025
S1130BD00C94450508958230E8F4E82FF0E0EE0F18
S1130BE0FF1FEF5FFE4F71836083813041F080917E
S1130BF069008C7F482B40936900E89A089580919E
S1130C006900837F440F551F440F551F482B4093A1
S1130C106900E99A08951F920F920FB60F9211245A
S1130C202F933F934F935F936F937F938F939F93F0
S1130C30AF93BF93EF93FF93E0910101F091020111
S1130C400995FF91EF91BF91AF919F918F917F9102
S1130C506F915F914F913F912F910F900FBE0F9025
S1130C601F9018951F920F920FB60F9211242F9375
S1130C703F934F935F936F937F938F939F93AF9320
S1130C80BF93EF93FF93E0910301F0910401099561
S1130C90FF91EF91BF91AF919F918F917F916F9150
S1130CA05F914F913F912F910F900FBE0F901F9026
S1130CB018951F920F920FB60F9211242F933F9302
S1130CC08F939F93AF93BF938091210290912202BF
S1130CD0A0912302B09124023091200223E0230F3B
S1130CE02D3720F40196A11DB11D05C026E8230F60
S1130CF00296A11DB11D209320028093210290939E
S1130D002202A0932302B0932402809125029091A1
S1130D102602A0912702B09128020196A11DB11DBF
S1130D208093250290932602A0932702B093280271
S1130D30BF91AF919F918F913F912F910F900FBED3
S1130D400F901F9018953FB7F894809125029091C9
S1130D502602A0912702B091280226B5A89B05C0BF
S1130D602F3F19F00196A11DB11D3FBFBA2FA92F26
S1130D70982F8827820F911DA11DB11DBC01CD01A3
S1130D8042E0660F771F881F991F4A95D1F708958F
S1130D908F929F92AF92BF92CF92DF92EF92FF9287
S1130DA06B017C010E94A3064B015C01C114D104B8
S1130DB0E104F10401F10E94E10B0E94A306DC01AD
S1130DC0CB0188199909AA09BB09883E9340A1055A
S1130DD0B10560F321E0C21AD108E108F10888EEF8
S1130DE0880E83E0981EA11CB11CC114D104E10437
S1130DF0F10419F7DBCFFF90EF90DF90CF90BF9015
S1130E00AF909F908F900895789484B5826084BD4C
S1130E1084B5816084BD85B5826085BD85B58160FA
S1130E2085BDEEE6F0E0808181608083E1E8F0E05A
S1130E301082808182608083808181608083E0E889
S1130E40F0E0808181608083E1EBF0E08081846068
S1130E508083E0EBF0E0808181608083EAE7F0E06A
S1130E6080818460808380818260808380818160CE
S1130E7080838081806880831092C1000895982FB8
S1130E8092959F702AEF929F800D1124089580E41B
S1130E9092E00C94470BFF920F931F93CF93DF9331
S1130EA0C62FF42E052F122F68E670E080E492E03E
S1130EB00E945B0B6C2F80E492E00E94080BCF2D04
S1130EC0D02FCE01810F911D8C01C017D10731F0B5
S1130ED0699180E492E00E94080BF7CF80E492E0ED
S1130EE0DF91CF911F910F91FF900C94DA0BCF9368
S1130EF0DF931F92CDB7DEB7498321E0AE014F5F88
S1130F005F4F0E944B070F90DF91CF910895CF93CD
S1130F10DF93EC0168E670E080E492E00E945B0BF2
S1130F2060E080E492E00E94080B80E492E00E947A
S1130F30DA0B882319F080932A023CC047E050E082
S1130F4068E670E080E492E00E94D70B80E492E0CF
S1130F500E94B70A8F770E943F07888380E492E05B
S1130F600E94B70A0E943F07898380E492E00E94AE
S1130F70B70A8F7B0E943F078A8380E492E00E9435
S1130F80B70A8B8380E492E00E94B70A0E943F076D
S1130F908C8380E492E00E94B70A8F770E943F0717
S1130FA08D8380E492E00E94B70A0E943F07825E2C
S1130FB08E8380E0DF91CF910895CF93DF93CDB7F7
S1130FC0DEB727970FB6F894DEBF0FBECDBFCE01B4
S1130FD001960E948707811105C0CE0101960E94E7
S1130FE0E70903C060E070E0CB0127960FB6F894E0
S1130FF0DEBF0FBECDBFDF91CF910895FF920F9357
S11310001F93CF93DF93C62FF42E052F122F68E67C
S113101070E080E492E00E945B0B6C2F80E492E02D
S11310200E94080B80E492E00E94DA0B811116C042
S1131030412F68E680E492E00E94D40BCF2DD02F9C
S1131040CE01810F911D8C01C017D10731F080E4CE
S113105092E00E94B70A8993F7CF80E0DF91CF91A5
S11310601F910F91FF900895CF93DF931F92CDB7F7
S1131070DEB721E0AE014F5F5F4F0E94FE0789811A
S11310800F90DF91CF9108950F931F93CF93DF9328
S11310908C01C62FD42F6EE00E943408C15021E089
S11310A030E001C0220FCA95EAF7DD2319F0482F7A
S11310B0422B03C02095422F48236EE0C801DF91E4
S11310C0CF911F910F910C9477070F931F93CF9398
S11310D08C01C62F6FE00E943408C15021E030E03B
S11310E001C0220FCA95EAF7982F922349F0209560
S11310F0422F48236FE0C8010E94770781E001C0B6
S113110080E0CF911F910F9108950F931F93CF9378
S11311108C01C62F6EE00E943408482FC43010F0B2
S1131120446006C0437E88E0C89FB0011124462B6A
S11311306EE0C801CF911F910F910C94770723E0C3
S1131140829FC0011124ABE2B2E020E030E0FC0158
S1131150E20FF31FE859FF4FE491ED932F5F3F4FE8
S113116023303105A1F710922E028BE292E008950C
S11311706F927F928F929F92AF92BF92CF92DF92A3
S1131180EF92FF920F931F93CF93DF936B017C0138
S1131190EA018CE3882E912CA12CB12CC701B60155
S11311A0A50194010E946F0E6883CA01B901A501CB
S11311B094010E946F0E6983C701B60120E13EE0ED
S11311C040E050E00E946F0ECA01B90128E130E00E
S11311D040E050E00E946F0E6A83C701B60120E828
S11311E031E541E050E00E946F0E69017A01CA01C5
S11311F0B9016C5F7F4F8F4F9F4F27E030E040E095
S113120050E00E946F0E6F5F6B83812C912C540110
S113121040E094E6692E712C00E911E0242F30E0BF
S11312202E54384FF901E370FF27309789F4C90130
S1131230B3010E945B0E892B31F4C901B8010E94ED
S11312405B0E892B29F48EE691E0A0E0B0E004C0A7
S11312508DE691E0A0E0B0E0880E991EAA1EBB1EA8
S1131260D501C401AA27BB27C816D906EA06FB067E
S113127010F04F5FD3CF4E83309799F4C90164E6E1
S113128070E00E945B0E892B39F4C90160E971E0BA
S11312900E945B0E892B29F48EE691E0A0E0B0E079
S11312A004C08DE691E0A0E0B0E0881A990AAA0A89
S11312B0BB0AC818D908EA08FB08C90164E670E04B
S11312C00E945B0E8C01C90160E971E00E945B0E13
S11312D0A6E5B1E020E0213041F4309751F4011546
S11312E0110529F4009729F402C04C9103C04DE183
S11312F001C04CE150E060E070E0C416D506E6069B
S1131300F70640F0C41AD50AE60AF70A2F5F1196C9
S11313102C3009F72F5F2D83C394CC82DF91CF91BA
S11313201F910F91FF90EF90DF90CF90BF90AF90FF
S11313309F908F907F906F900895CF92DF92EF925D
S1131340FF92C0903502D0903602E0903702F090C0
S11313503802C616D706E806F90671F06B017C015F
S113136049E352E00E94B808C0923502D092360296
S1131370E0923702F0923802FF90EF90DF90CF9026
S113138008950E949D0980913B0290E008950E9477
S11313909D0980913A0290E008950E949D098091F0
S11313A0390290E008950E949D0980913D0290E0E9
S11313B008950E949D0980913E0290E008950E9444
S11313C09D0980913F0290E08E54984F08954F926A
S11313D05F926F927F928F929F92AF92BF92CF92C1
S11313E0DF92EF92FF920F931F93CF93DF93FC0151
S11313F01681A12FB0E020E833E341EE51E00E94D2
S1131400A00E4B015C01C2EBD7E09D0104E610E0A5
S113141080E9E82EFF24F394CE01825B9740821783
S11314209307D4F4CE0183709927892B99F4CE01C4
S1131430B8010E945B0E892B31F4CE01B7010E94E2
S11314405B0E892B39F480E8880E81E5981E81E0D3
S1131450A81EB11C2196E0CF4580512C2E54384F44
S1131460C90164E670E00E945B0E7C01C90160E979
S113147071E00E945B0E6C0106E511E0C1E0D0E072
S11314803901A3E06A227724C415D50534F5C230A6
S1131490D10589F46114710471F4E114F10419F4AF
S11314A0C114D10441F4B0E88B0EBBE39B1EB6E239
S11314B0AB1EB11C0EC0D8018C91A82FB0E020E85F
S11314C031E541E050E00E94A00E860E971EA81E52
S11314D0B91E21960F5F1F4FD7CF4181228130E083
S11314E0A0E1BEE00E94910E6B017C01242F30E04C
S11314F0ACE3B0E00E94910EDC01CB018C0D9D1D8C
S1131500AE1DBF1D20816C017D01C20ED11CE11CEA
S1131510F11CA481B0E0119720E831E541E050E0EE
S11315200E94AB0EDC01CB018C0D9D1DAE1DBF1DB9
S1131530BC01CD01680D791D8A1D9B1DDF91CF91E2
S11315401F910F91FF90EF90DF90CF90BF90AF90DD
S11315509F908F907F906F905F904F9008958091AF
S1131560700290E020917102821B9109089590917C
S1131570710280917002981750F4E92FF0E0EE5850
S1131580FD4F208130E09F5F9093710202C02FEFE6
S11315903FEFC9010895E091710280917002E8174C
S11315A030F4F0E0EE58FD4F808190E008958FEF25
S11315B09FEF08950895CF92DF92EF92FF920F93D9
S11315C01F93CF93DF937C01CB018A0120914C02BE
S11315D0222389F0EB016B01C40ED51ECC15DD0569
S11315E069F06991D701ED91FC910190F081E02DB2
S11315F0C7010995F3CF642F0E949E0CC801DF91A7
S1131600CF911F910F91FF90EF90DF90CF900895AD
S1131610CF93DF931F92CDB7DEB7698320914C023D
S11316202223D1F020914D02203240F021E030E01D
S1131630FC013383228380E090E015C080914E0248
S1131640E82FF0E0E15BFD4F998190838F5F8093F9
S11316504E0280934D0205C061E0CE0101960E94C6
S11316609E0C81E090E00F90DF91CF910895FC01F2
S11316701382128288EE93E0A0E0B0E08483958325
S1131680A683B78386E691E09183808308951092C0
S113169071021092700210924E0210924D020C943C
S11316A0E20B81E080934C0260936F0210924E0231
S11316B010924D0208950C94510B0F93062F21E0C4
S11316C040914D026FE472E080916F020E94480CD9
S11316D010924E0210924D0210924C020F910895F6
S11316E04F925F926F927F92AF92BF92CF92EF929E
S11316F0FF920F931F93CF93DF935C01F62ED42FA9
S113170028013901EE2021F10E94510BCE2DC43065
S113171008F0C3E0C150C0F028E0C29FC00111240A
S1131720A301920104C056954795379527958A954C
S1131730D2F7CA01B901D501ED91FC910190F08174
S1131740E02DC5010995E6CF60E0C5010E945D0B5F
S11317504D2FD13208F040E22C2D62E772E08F2D3C
S11317600E94000C1092710280937002DF91CF915D
S11317701F910F91FF90EF90CF90BF90AF907F900B
S11317806F905F904F900895CF92EF920F931F93B5
S1131790C22EE12C00E010E098010E94700B1F9112
S11317A00F91EF90CF90089521E00C94C40B21E0A9
S11317B00C94C40B61E00C945D0B80E492E00C94F7
S11317C0370B08951092FF0281E08093FD0210927E
S11317D0FC0261E082E10E942C0E61E083E10E9440
S11317E02C0EE9EBF0E080818E7F808380818D7FF9
S11317F0808388E48093B80085E48093BC000895D6
S1131800413208F043C09091FF029111FCCF91E066
S11318109093FF022093FD022FEF209392021092E7
S1131820D702240F2093D6029093FE029091FE02D9
S1131830880F892B8093FE028091FC02813061F431
S11318401092FC028091FE028093BB008091BC0048
S113185083FDF8CF85EC01C085EE8093BC008091B8
S1131860FF028130E1F38091D702841710F4409194
S1131870D702A8EDB2E0962FFB018E2F891B8417A7
S113188018F48D918193F9CF842F089580E0089501
S11318900F93413208F04AC09091FF029111FCCF9E
S11318A032E03093FF020093FD023FEF3093920247
S11318B01092D7024093D602562FA8EDB2E0FB0156
S11318C03E2F351B341718F431913D93F9CF109204
S11318D0FE023091FE02880F832B8093FE028091DA
S11318E0FC02813061F41092FC028091FE0280932C
S11318F0BB008091BC0083FDF8CF85EC01C085EE70
S11319008093BC00222321F08091FF028230D1F326
S1131910809192028F3F79F080919202803241F05F
S113192080919202803331F094E005C091E003C0CD
S113193092E001C093E0892F0F9108954091B40281
S1131940262F30E0240F311D21323105DCF42091A3
S1131950FF022430C9F4FC0180E090E0861758F4BB
S11319603091B4022191DC01AA54BD4FA30FB11DE3
S11319702C930196F3CF8091B402680F6093B40264
S113198080E0089581E0089582E0089585ED8093D4
S1131990BC008091BC0084FDFCCF1092FF0208952E
S11319A085EC8093BC001092FF0208951F920F9261
S11319B00FB60F9211242F933F934F935F936F931E
S11319C07F938F939F93AF93BF93EF93FF938091F4
S11319D0B900887F803609F49EC078F5883209F40E
S11319E05DC090F4803109F456C038F4882309F4BA
S11319F0F5C0883009F44FC0F5C0883109F44EC0F1
S1131A00803209F45FC0EEC0803409F46AC058F42F
S1131A10803309F457C0883309F0E4C080939202FC
S1131A200E94D00CDFC0803509F44FC0883509F41A
S1131A305DC0883409F0D6C0D3C0883909F4C4C065
S1131A40A8F4883709F467C038F4883609F463C009
S1131A50803709F460C0C6C0883809F4B5C080393D
S1131A6009F45FC0803809F0BDC05BC0803B09F455
S1131A7083C038F4803A09F466C0883A09F47CC01B
S1131A80B1C0803C09F4A4C0883C09F4A1C0883BDF
S1131A9009F487C0A7C08091FE0210C09091D702BC
S1131AA08091D602981770F5E091D70281E08E0FED
S1131AB08093D702F0E0E852FD4F80818093BB0011
S1131AC085EC83C0809392028BC0E091D70281E0C1
S1131AD08E0F8093D7028091BB00F0E0E852FD4F57
S1131AE080839091D7028091D6026BC0E091D70297
S1131AF081E08E0F8093D7028091BB00F0E0E85222
S1131B00FD4F80838091FD0281116AC081E0809342
S1131B10FC0284EA5EC083E08093FF021092930289
S1131B20CFCF80919302803208F04EC0E0919302AF
S1131B3081E08E0F809393028091BB00F0E0EC561D
S1131B40FD4F8083BDCF0E94D00C809193028032E0
S1131B5030F4E0919302F0E0EC56FD4F1082609176
S1131B60930270E0E091F802F091F90284E992E0C6
S1131B7009951092930236C084E08093FF0210927C
S1131B80B5021092B402E091FA02F091FB020995B9
S1131B908091B402811105C081E08093B402109257
S1131BA0B602E091B50281E08E0F8093B502F0E0B9
S1131BB0EA54FD4F80818093BB009091B5028091DF
S1131BC0B402981708F47CCF85E88093BC000AC05F
S1131BD085EC8093BC001092FF0204C01092920224
S1131BE00E94C60CFF91EF91BF91AF919F918F918D
S1131BF07F916F915F914F913F912F910F900FBE05
S1131C000F901F901895833081F028F4813099F05B
S1131C108230A1F008958730A9F08830B9F084307B
S1131C20D1F4809180008F7D03C0809180008F77F4
S1131C3080938000089584B58F7702C084B58F7D2A
S1131C4084BD08958091B0008F7703C08091B00067
S1131C508F7D8093B00008951F93CF93DF93282F37
S1131C6030E0F901E057FF4F8491F901EC55FF4F43
S1131C70D491F901E854FF4FC491CC23C1F0162F3D
S1131C8081110E94030EEC2FF0E0EE0FFF1FE453CE
S1131C90FF4FA591B4919FB7F894111104C08C9192
S1131CA0D095D82302C0EC91DE2BDC939FBFDF914B
S1131CB0CF911F91089597FB072E16F4009407D037
S1131CC077FD09D00E94B30E07FC05D03EF4909531
S1131CD081959F4F0895709561957F4F0895A1E276
S1131CE01A2EAA1BBB1BFD010DC0AA1FBB1FEE1F92
S1131CF0FF1FA217B307E407F50720F0A21BB30BDD
S1131D00E40BF50B661F771F881F991F1A9469F758
S1131D1060957095809590959B01AC01BD01CF01B4
S1131D200895A29FB001B39FC001A39F700D811DB0
S1131D301124911DB29F700D811D1124911D0895D0
S1131D400E94910EA59F900DB49F900DA49F800DAD
S1131D50911D11240895B7FF0C94A00E0E94A00EAB
S1131D60821B930B0895AA1BBB1B51E107C0AA1F3A
S1131D70BB1FA617B70710F0A61BB70B881F991F28
S1131D805A95A9F780959095BC01CD010895EE0F61
S1131D90FF1F0590F491E02D0994F999FECF92BDAF
S1111DA081BDF89A992780B50895F894FFCF75
S1131DAE07EA05EA05300043757272656E74207495
S1131DBE696D652069733A2000202D2D3E20416CFB
S1131DCE61726D20312100202D2D3E20416C6172F7
S1131DDE6D2032210000000000A603F904570371A0
S1131DEE036303ED030D0A006E616E00696E6600F7
S1131DFE6F7666002E001F1C1F1E1F1E1F1F1E1F28
S1131E0E1E1F00000000080BDB0AAF0AB70ACB0A3C
S1051E1EDA0ADA
S9030000FC
