:100000000C948D000C949F0A0C94C60A0C94B500B5
:100010000C94B5000C94B5000C94B5000C94B5008C
:100020000C94B5000C94B5000C94B5000C94DD064E
:100030000C94B5000C94B5000C94B5000C94B5006C
:100040000C94ED0A0C94B5000C9408090C943A0930
:100050000C94B5000C94B5000C94B5000C94B5004C
:100060000C94BB140C94B500B30322048D04020558
:1000700072058D068D068D068D068D06B90537062F
:10008000F6049B067E068D068D068D068D068D0672
:100090009B069B069B069B069B0600000008000231
:1000A000010000030407000000000000000001023E
:1000B00004081020408001020408102001020408F6
:1000C00010200404040404040404020202020202D4
:1000D00003030303030300000000250028002B0096
:1000E00000000000240027002A004572724A616E59
:1000F0004665624D61724170724D61794A756E4A12
:10010000756C4175675365704F63744E6F764465C7
:100110006300B7076009970CC21311241FBECFEF0D
:10012000D8E0DEBFCDBF11E0A0E0B1E0ECEFFCE233
:1001300002C005900D92AA3CB107D9F723E0AAECC2
:10014000B1E001C01D92AB37B207E1F710E0CDE896
:10015000D0E004C02197FE010E942A16C938D107B9
:10016000C9F70E942E070C947C160C94000081E0C5
:100170008093FD010895CF93DF93EC01FB0124816F
:10018000358140815181628173810E94360ACE019E
:10019000DF91CF910895EF92FF920F931F93CF932A
:1001A000DF93CDB7DEB727970FB6F894DEBF0FBE4B
:1001B000CDBF5E83F22EE42E89E0841718F462E945
:1001C00071E002C066E071E08EEF91E00E94CC0920
:1001D0004AE050E06E2D8EEF91E00E942F0A60E21F
:1001E0008EEF91E00E94CE098E810E948410BC01A6
:1001F0008EEF91E00E94CC0960E28EEF91E00E94C8
:10020000CE0989E08F1518F462E971E002C066E05A
:1002100071E08EEF91E00E94CC094AE050E06F2D32
:100220008EEF91E00E942F0A6AE38EEF91E00E9428
:10023000CE091A3018F062E971E002C066E071E0A0
:100240008EEF91E00E94CC094AE050E0612F8EEFE2
:1002500091E00E942F0A6AE38EEF91E00E94CE099E
:100260000A3018F062E971E002C066E071E08EEFDA
:1002700091E00E94CC094AE050E0602F8EEF91E0BF
:100280000E942F0A8EEF91E027960FB6F894DEBFFA
:100290000FBECDBFDF91CF911F910F91FF90EF90D7
:1002A0000C94D509CF92DF92EF92FF920F931F9398
:1002B000CF93DF9300D000D000D0CDB7DEB76A0176
:1002C0007B01CB01BA010E94B811092E000CAA0BC8
:1002D000BB0B89839A83AB83BC838AE090E09E83C7
:1002E0008D83C701B6010E94B8110A971CF062E91C
:1002F00071E002C066E071E08EEF91E00E94CC09EF
:10030000BE016F5F7F4F8EEF91E00E94BB0060E205
:100310000E94CE09C701B6010E94C411092E000C2B
:10032000AA0BBB0B89839A83AB83BC830AE010E0E2
:100330001E830D83C701B6010E94BE110E94841066
:10034000BC018EEF91E00E94CC0960E671E08EEF77
:1003500091E00E94CC09BE016F5F7F4F8EEF91E06C
:100360000E94BB0060E20E94CE09C701B6010E9454
:10037000A611092E000CAA0BBB0B89839A83AB83B1
:10038000BC831E830D83C701B6010E94A6110A9784
:100390001CF062E971E002C066E071E08EEF91E06E
:1003A0000E94CC09BE016F5F7F4F8EEF91E00E94EB
:1003B000BB006AE30E94CE09C701B6010E94AC11DE
:1003C000092E000CAA0BBB0B89839A83AB83BC83D9
:1003D0008AE090E09E838D83C701B6010E94AC1134
:1003E0000A971CF062E971E002C066E071E08EEFEE
:1003F00091E00E94CC09BE016F5F7F4F8EEF91E0CC
:100400000E94BB006AE30E94CE09C701B6010E94A8
:10041000B211092E000CAA0BBB0B89839A83AB8304
:10042000BC838AE090E09E838D83C701B6010E9461
:10043000B2110A971CF062E971E002C066E071E057
:100440008EEF91E00E94CC09BE016F5F7F4F8EEF6F
:1004500091E00E94BB0026960FB6F894DEBF0FBE57
:10046000CDBFDF91CF911F910F91FF90EF90DF9063
:10047000CF9008959F92AF92BF92CF92DF92EF926A
:10048000FF920F931F93CF93DF93CDB7DEB72797DC
:100490000FB6F894DEBF0FBECDBF6A017B01CB0162
:1004A000BA010E94C411182FC701B6010E94B811E9
:1004B000B82EC701B6010E94BE11082FC701B601B0
:1004C0000E94A611A82EC701B6010E94AC11982E59
:1004D000C701B6010E94B2115C81282F392D4A2D27
:1004E0006B2D702F812F90E027960FB6F894DEBF0A
:1004F0000FBECDBFDF91CF911F910F91FF90EF9075
:10050000DF90CF90BF90AF909F900895CF93DF93EF
:10051000EC01188240E050E0BA0181EF91E00E94C6
:100520003A0229835C836D837E838F8388E08B838B
:100530008EE18A83DF91CF9108958EE00E94DE0BD9
:100540009C012B3184E03807A4F4223331059CF060
:100550002A3F310594F0223C91E0390784F02A3893
:1005600082E0380774F081E0223533405CF080E0AF
:10057000089582E0089583E0089584E0089585E079
:10058000089586E00895EF92FF920F931F93CF9303
:10059000DF93EC0152985A9A42E050E067EB70E02A
:1005A00080E00E947F0A64E084EA92E00E94DA0E12
:1005B00061E084EA92E00E94BA0E41E061E084EAE0
:1005C00092E00E94990E62E084EA92E00E94BA0EE4
:1005D00041E062E084EA92E00E94990E0091F90104
:1005E00010E07E0187E0E80EF11C0C1B1D0BC8011A
:1005F0008C0F9D1F0E9466168993CE15DF05B9F7F3
:100600000091000110E0C0E0D0E0CE01800F911F0A
:100610000E946616F70181937F012196C730D105AC
:10062000A1F7DF91CF911F910F91FF90EF90089567
:10063000CF93DF938091FD018823B1F0EB0161E05E
:1006400084EA92E00E94BA0E882311F081E008C08B
:1006500062E084EA92E00E94BA0E882311F082E000
:1006600088831092FD0102C0FB011082DF91CF91BF
:100670000895EF92FF920F931F93CF93DF93CDB71F
:10068000DEB72E970FB6F894DEBF0FBECDBF802F1A
:1006900008871987022F2A873B874C875D876E87DB
:1006A000EE24E394212F482F68E084EA92E00E9430
:1006B000D70C61E084EA92E00E94BA0E41E061E06A
:1006C00084EA92E00E94990ECE0108960E94CC1115
:1006D00069837A838B839C839E012F5F3F4F7901CF
:1006E00000E010E0F70161917F018091F90198012C
:1006F000280F311DC9010E946E160F5F1F4F073072
:10070000110581F72E960FB6F894DEBF0FBECDBF50
:10071000DF91CF911F910F91FF90EF900895BF92BD
:10072000CF92DF92EF92FF920F931F93CF93DF93BD
:10073000CDB7DEB727970FB6F894DEBF0FBECDBF9B
:100740007C0181EF91E00E949D02182FD701EC916E
:100750008E2F90E08931910508F0DFC2FC01EC5C3E
:10076000FF4F0C942A160E94840DAB01BC0181EF4F
:1007700091E00E943A02F70121833283438354833C
:100780006583768387838AEC91E00E94970F40E02F
:1007900060E08AEC91E00E949E0F68E071E08AECD4
:1007A00091E00E94CC0941E060E08AEC91E00E9477
:1007B0009E0FD70112960C910A3028F0F2E9CF2E45
:1007C000F1E0DF2E04C0E6E0CE2EE1E0DE2EF70100
:1007D000B380F9E0FB1518F462E971E002C066E04D
:1007E00071E08AEC91E00E94CC094AE050E06B2D68
:1007F0008AEC91E00E942F0A64E171E08AEC91E0BA
:100800000E94CC09B6018AEC91E00E94CC094AE032
:1008100050E0602F8AEC91E00E942F0A62E971E0BB
:100820008AEC91E00E94CC09133051F0163031F07F
:10083000113009F080C2D7011C937DC284E172C1DE
:100840008AE059C28AEC91E00E94970F40E060E094
:100850008AEC91E00E949E0F66E171E08AEC91E0E3
:100860000E94CC0941E060E08AEC91E00E949E0F7A
:10087000F70102810A3028F072E9C72E71E0D72E05
:1008800004C066E0C62E61E0D62ED7011396BC9058
:10089000B9E0BB1518F462E971E002C066E071E0EE
:1008A0008AEC91E00E94CC094AE050E06B2D8AEC82
:1008B00091E00E942F0A64E171E08AEC91E00E94CD
:1008C000CC09B6018AEC91E00E94CC094AE050E0E4
:1008D000602F8AEC91E00E942F0A62E971E08AECB5
:1008E00091E00E94CC09143009F4E6C120F41330E1
:1008F00009F4F6C020C2153021F0163009F4B2C157
:100900001AC2F7018381811103C084E1838313C27A
:1009100086EFD70113968C930EC28AEC91E00E9469
:10092000970F40E060E08AEC91E00E949E0F66E144
:1009300071E08AEC91E00E94CC0941E060E08AEC31
:1009400091E00E949E0FF70102810A3028F052E9DF
:10095000C52E51E0D52E04C046E0C42E41E0D42E71
:10096000D7011396BC90B9E0BB1518F462E971E0A9
:1009700002C066E071E08AEC91E00E94CC094AE096
:1009800050E06B2D8AEC91E00E942F0A64E171E047
:100990008AEC91E00E94CC09B6018AEC91E00E94B9
:1009A000CC094AE050E0602F8AEC91E00E942F0AC7
:1009B00062E971E08AEC91E00E94CC09143071F098
:1009C00030F4133009F0B7C1F7011083B4C115300A
:1009D00081F0163009F0AFC181E08DC1F70183814C
:1009E000883110F08DEF92CF81E093CF143009F071
:1009F00072C1F7018381811102C089E08ACF8FEF34
:100A0000F70184CF8AEC91E00E94970F40E060E00C
:100A10008AEC91E00E949E0F66E171E08AEC91E021
:100A20000E94CC0941E060E08AEC91E00E949E0FB8
:100A3000D70112960C910A3028F032E9C32E31E02A
:100A4000D32E04C026E0C22E21E0D22EF701B380BF
:100A5000F9E0FB1518F462E971E002C066E071E0AC
:100A60008AEC91E00E94CC094AE050E06B2D8AECC0
:100A700091E00E942F0A64E171E08AEC91E00E940B
:100A8000CC09B6018AEC91E00E94CC094AE050E022
:100A9000602F8AEC91E00E942F0A62E971E08AECF3
:100AA00091E00E94CC09143059F028F4133009F079
:100AB00042C184E037C0153069F0163089F03BC17F
:100AC000D70113968C9113978B3310F48AE021CFC2
:100AD0008EEC20CFF701838181111ACF82E316CFEC
:100AE00082E009C18AEC91E00E94970F40E060E04B
:100AF0008AEC91E00E949E0F66E171E08AEC91E041
:100B00000E94CC0941E060E08AEC91E00E949E0FD7
:100B1000143041F150F0153009F4E9C0163009F0F5
:100B20000AC183E0F701808306C1113009F003C1D7
:100B3000D7011D92CD010E94CC11AB01BC0184EA0A
:100B400092E027960FB6F894DEBF0FBECDBFDF91BF
:100B5000CF911F910F91FF90EF90DF90CF90BF90BA
:100B60000C94740EF70183818B3308F43DCF87EF2B
:100B7000CDCE8AEC91E00E94970F40E060E08AECD5
:100B800091E00E949E0F67E271E08AEC91E00E9482
:100B9000CC0941E060E08AEC91E00E949E0F409118
:100BA000E3015091E4016091E5017091E60181EF6C
:100BB00091E00E943A02032FD70111962C931197CE
:100BC00012963C93129713964C93139714965C933A
:100BD000149715966C93159716967C9316971796FF
:100BE0008C933A3028F092E9C92E91E0D92E04C0B6
:100BF00086E0C82E81E0D82EF701B380F9E0FB151E
:100C000018F462E971E002C066E071E08AEC91E0FC
:100C10000E94CC094AE050E06B2D8AEC91E00E94E2
:100C20002F0A64E171E08AEC91E00E94CC09B601E0
:100C30008AEC91E00E94CC094AE050E0602F8AECF7
:100C400091E00E942F0A62E971E08AEC91E00E9433
:100C5000CC09133051F0163029F0113009F06BC077
:100C60008BE049C0F701108266C084E144C08AEC81
:100C700091E00E94970F40E060E08AEC91E00E94D2
:100C80009E0F65E371E08AEC91E00E94CC0941E09F
:100C900060E08AEC91E00E949E0F143069F028F425
:100CA000133009F048C08CE026C0153061F01630D2
:100CB00009F041C08AE036CFF7018381883108F41A
:100CC00005CF8CEE23CED70113968C91139781110B
:100CD0001FCE84E11FCE153020F4133061F58DE076
:100CE0000AC0153021F0163031F58BE01BCFD7014B
:100CF00013968C9180CED7018C931DC01130D9F4FE
:100D0000F7010181128123813481458156816781F8
:100D100083EE91E00E9439030EC00E94840DAB0166
:100D2000BC01C7010E943A0289019A01AB01682FF8
:100D3000C7010E94CB0027960FB6F894DEBF0FBE06
:100D4000CDBFDF91CF911F910F91FF90EF90DF907A
:100D5000CF90BF9008958AB1806F8AB98BB18F70A0
:100D60008BB9F89410928000E1E8F0E010821092C4
:100D700085001092840080E89EE390938900809320
:100D80008800808188608083808181608083EFE635
:100D9000F0E080818260808378940895613029F04A
:100DA000623039F45C9A5D9A02C05C9A5D985E9AF2
:100DB00008955C985D985E9808951F920F920FB603
:100DC0000F9211242F933F934F935F936F937F93D1
:100DD0008F939F93AF93BF93CF93EF93FF938091A4
:100DE000FB019091FC01843F9140E8F08091FA0171
:100DF0008F5F8093FA011092FC011092FB01C09169
:100E0000FA0166E471E08EEF91E00E94CC094AE0BD
:100E100050E06C2F8EEF91E00E942F0A8EEF91E050
:100E20000E94D50909C08091FB019091FC010196B7
:100E30009093FC018093FB01FF91EF91CF91BF91C3
:100E4000AF919F918F917F916F915F914F913F9162
:100E50002F910F900FBE0F901F901895CF93DF9397
:100E6000CDB7DEB728970FB6F894DEBF0FBECDBF63
:100E70000E94A30B26E040E855E260E070E08EEFB0
:100E800091E00E949F0820E042E060E18AEC91E05E
:100E90000E94B90F83EE91E00E94C30282EE91E0BE
:100EA0000E94AB06188660E571E08EEF91E00E942B
:100EB000CC090E94840DAB01BC0181EF91E00E943E
:100EC00052018EEF91E00E94D5090E94840DAB0182
:100ED000BC0181EF91E00E943A0289019A01AB01C5
:100EE000682F81EF91E00E94CB00BE01685F7F4FC9
:100EF00083EE91E00E94180388858130B1F0823042
:100F000059F50E94840DAB01BC0181EF91E00E9474
:100F1000520160E771E08EEF91E00E94CC098EEF04
:100F200091E00E94D50962E013C00E94840DAB01DC
:100F3000BC0181EF91E00E94520162E671E08EEF08
:100F400091E00E94CC098EEF91E00E94D50961E00A
:100F500082EE91E00E94CE0681EF91E00E948F0325
:100F600064E670E080E090E00E945C0BBECFCF9220
:100F7000EF920F9381EF91E00E948602E3EEF1E0A1
:100F800010821182128213821782108611861286B5
:100F90008BE0C82E9AE0E92E09E028E04CE06DE0F5
:100FA0008AEC91E00E945E100F91EF90CF9008952F
:100FB000FC01918D228D892F90E0805C9F4F821BD8
:100FC00091098F7399270895FC01918D828D98174F
:100FD00031F0828DE80FF11D858D90E008958FEF3F
:100FE0009FEF0895FC01918D828D981761F0828D9D
:100FF000DF01A80FB11D5D968C91928D9F5F9F734D
:10100000928F90E008958FEF9FEF0895FC01538D2C
:10101000448D252F30E0842F90E0821B930B5417D2
:1010200010F0CF96089501970895FC01848DDF019B
:10103000A80FB11DA35ABF4F2C91848D90E001964B
:101040008F739927848FA689B7892C93A089B1893A
:101050008C9180648C93938D848D981306C0028844
:10106000F389E02D80818F7D80830895EF92FF9238
:101070000F931F93CF93DF93EC0181E0888F9B8DBB
:101080008C8D981305C0E889F989808185FD24C07D
:10109000F62E0B8D10E00F5F1F4F0F731127E02E00
:1010A0008C8DE8120CC00FB607FCFACFE889F989DD
:1010B000808185FFF5CFCE010E941508F1CF8B8D81
:1010C000FE01E80FF11DE35AFF4FF0820B8FEA8912
:1010D000FB898081806207C0EE89FF896083E8898F
:1010E000F98980818064808381E090E0DF91CF91F5
:1010F0001F910F91FF90EF900895CF93DF93EC0134
:10110000888D8823C9F0EA89FB89808185FD05C027
:10111000A889B9898C9186FD0FC00FB607FCF5CF61
:10112000808185FFF2CFA889B9898C9185FFEDCFA9
:10113000CE010E941508E7CFDF91CF910895CF929D
:10114000DF92EF92FF921F93CF93DF93EC016A013E
:101150007B01122FE889F98982E080834115514E85
:1011600061057105B1F060E079E08DE390E0A701E1
:1011700096010E940816DA01C9010197A109B10977
:10118000B695A795979587959C01211580E138071D
:10119000A8F0E889F989108260E874E88EE190E0AF
:1011A000A70196010E940816DA01C9010197A10959
:1011B000B109B695A795979587959C01EC85FD8516
:1011C0003083EE85FF852083188EEC89FD8910839E
:1011D000EA89FB89808180618083EA89FB8980813B
:1011E00088608083EA89FB89808180688083EA89BE
:1011F000FB8980818F7D8083DF91CF911F91FF904C
:10120000EF90DF90CF90089580E090E008950895EA
:101210001F920F920FB60F9211242F938F939F93CB
:10122000EF93FF93E0910E02F0910F028081E09125
:101230001402F091150282FD12C090818091170274
:101240008F5F8F7320911802821751F0E09117027F
:10125000F0E0E250FE4F958F8093170201C080812D
:10126000FF91EF919F918F912F910F900FBE0F9053
:101270001F9018951F920F920FB60F9211242F9363
:101280003F934F935F936F937F938F939F93AF930E
:10129000BF93EF93FF938EEF91E00E941508FF91AB
:1012A000EF91BF91AF919F918F917F916F915F91DE
:1012B0004F913F912F910F900FBE0F901F90189557
:1012C000EEEFF1E01382128288EE93E0A0E0B0E04E
:1012D00084839583A683B78382E891E0918380839A
:1012E00085EC90E09587848784EC90E097878687EB
:1012F00080EC90E0918B808B81EC90E0938B828BE3
:1013000082EC90E0958B848B86EC90E0978B868BBB
:10131000118E128E138E148E0895CF92DF92EF925B
:10132000FF920F931F93CF93DF936C017A018B0190
:10133000C0E0D0E0CE15DF0581F0D8016D918D01C0
:10134000D601ED91FC910190F081E02DC601099547
:10135000892B11F02196EECF7E01C701DF91CF914D
:101360001F910F91FF90EF90DF90CF90089561153E
:10137000710579F0FB0101900020E9F73197AF0189
:10138000461B570BDC01ED91FC910280F381E02DAF
:10139000099480E090E008950C94B709DC01ED9188
:1013A000FC910190F081E02D099460E971E00C94CA
:1013B000B7098F929F92AF92BF92EF92FF920F93D5
:1013C0001F93CF93DF93CDB7DEB7A1970FB6F894F5
:1013D000DEBF0FBECDBF7C01FA01CB0119A22230C6
:1013E00008F42AE08E010F5D1F4F822E912CA12C54
:1013F000B12CBF01A50194010E940816F901CA0190
:10140000015011096A3010F4605D01C0695CD801B7
:101410006C93232B242B252B61F7B801C7010E9465
:10142000B709A1960FB6F894DEBF0FBECDBFDF910E
:10143000CF911F910F91FF90EF90BF90AF909F9031
:101440008F9008952115310541F4DC01ED91FC9157
:101450000190F081E02D642F09940C94D9099A0130
:10146000462F50E060E070E00C94220ACF92DF92A9
:10147000EF92FF920F931F93CF93DF9321153105C6
:1014800081F4DC01ED91FC910190F081E02D642F5D
:10149000DF91CF911F910F91FF90EF90DF90CF9050
:1014A00009942A30310501F577FF1DC06A017B01DF
:1014B000EC016DE20E94CE098C0144275527BA0148
:1014C0004C195D096E097F092AE0CE010E94D909F5
:1014D000800F911FDF91CF911F910F91FF90EF909F
:1014E000DF90CF9008952AE0DF91CF911F910F9167
:1014F000FF90EF90DF90CF900C94D909089582303F
:10150000E8F4E82FF0E0EE0FFF1FEF5FFE4F71836E
:101510006083813041F0809169008C7F482B40933B
:101520006900E89A089580916900837F440F551FF0
:10153000440F551F482B40936900E99A08951F9264
:101540000F920FB60F9211242F933F934F935F93F7
:101550006F937F938F939F93AF93BF93EF93FF937B
:10156000E0910101F09102010995FF91EF91BF9186
:10157000AF919F918F917F916F915F914F913F912B
:101580002F910F900FBE0F901F9018951F920F92E2
:101590000FB60F9211242F933F934F935F936F9346
:1015A0007F938F939F93AF93BF93EF93FF93E091BC
:1015B0000301F09104010995FF91EF91BF91AF9163
:1015C0009F918F917F916F915F914F913F912F915B
:1015D0000F900FBE0F901F9018951F920F920FB68D
:1015E0000F9211242F933F938F939F93AF93BF93A9
:1015F00080919C0290919D02A0919E02B0919F02C9
:1016000030919B0223E0230F2D3720F40196A11D7A
:10161000B11D05C026E8230F0296A11DB11D209320
:101620009B0280939C0290939D02A0939E02B09394
:101630009F028091A0029091A102A091A202B0917C
:10164000A3020196A11DB11D8093A0029093A10257
:10165000A093A202B093A302BF91AF919F918F91EB
:101660003F912F910F900FBE0F901F9018953FB78D
:10167000F8948091A0029091A102A091A202B09151
:10168000A30226B5A89B05C02F3F19F00196A11D06
:10169000B11D3FBFBA2FA92F982F8827820F911D08
:1016A000A11DB11DBC01CD0142E0660F771F881F4F
:1016B000991F4A95D1F708958F929F92AF92BF924A
:1016C000CF92DF92EF92FF926B017C010E94370B69
:1016D0004B015C01C114D104E104F10401F10E9449
:1016E000C6130E94370BDC01CB0188199909AA099E
:1016F000BB09883E9340A105B10560F321E0C21A01
:10170000D108E108F10888EE880E83E0981EA11C3C
:10171000B11CC114D104E104F10419F7DBCFFF902F
:10172000EF90DF90CF90BF90AF909F908F900895F3
:101730008230910538F0880F991F880F991F0597FF
:101740000197F1F70895789484B5826084BD84B5DB
:10175000816084BD85B5826085BD85B5816085BDAC
:10176000EEE6F0E0808181608083E1E8F0E01082C5
:10177000808182608083808181608083E0E8F0E006
:10178000808181608083E1EBF0E0808184608083F0
:10179000E0EBF0E0808181608083EAE7F0E0808127
:1017A0008460808380818260808380818160808387
:1017B0008081806880831092C10008958E3008F087
:1017C0008E502091050190E4299F9001112487708B
:1017D000822B80937C0080917A00806480937A00D1
:1017E00080917A0086FDFCCF80917800209179006D
:1017F00090E0922B0895833081F028F4813099F0A5
:101800008230A1F008958730A9F08830B9F0843093
:10181000D1F4809180008F7D03C0809180008F770C
:1018200080938000089584B58F7702C084B58F7D42
:1018300084BD08958091B0008F7703C08091B0007F
:101840008F7D8093B0000895CF93DF9390E0FC01EB
:10185000E255FF4F2491FC01EE53FF4F8491882302
:1018600061F190E0880F991FFC01E052FF4FC59194
:10187000D491FC01EA52FF4FA591B491611109C0C6
:101880009FB7F8948881209582238883EC912E233A
:101890000BC0623061F49FB7F8948881322F309585
:1018A00083238883EC912E2B2C939FBF06C08FB788
:1018B000F894E8812E2B28838FBFDF91CF91089574
:1018C0001F93CF93DF93282F30E0F901E656FF4FA7
:1018D0008491F901E255FF4FD491F901EE53FF4F86
:1018E000C491CC23C1F0162F81110E94FB0BEC2F69
:1018F000F0E0EE0FFF1FEA52FF4FA591B4919FB7A2
:10190000F894111104C08C91D095D82302C0EC91A9
:10191000DE2BDC939FBFDF91CF911F910895982F0D
:1019200092959F702AEF929F800D112408958BEB62
:1019300092E00C942C13FF920F931F93CF93DF939D
:10194000C62FF42E052F122F68E670E08BEB92E085
:101950000E9440136C2F8BEB92E00E94ED12CF2D72
:10196000D02FCE01810F911D8C01C017D10731F00E
:1019700069918BEB92E00E94ED12F7CF8BEB92E036
:10198000DF91CF911F910F91FF900C94BF13CF93D4
:10199000DF931F92CDB7DEB7498321E0AE014F5FE1
:1019A0005F4F0E949B0C0F90DF91CF910895CF92D3
:1019B000DF92EF920F931F93CF93DF936C01362F3B
:1019C0005AE0842F652F0E94E815982F990F890FF0
:1019D000880F480F822F0E94E815C82FCC0F8C0F5C
:1019E000880FC22FC80F802F0E94E815982F990FDB
:1019F000890F880F080F8E2D0E94E815D82FDD0F54
:101A0000D80FDD0FDE0D30FD406831FDC06832FDBE
:101A1000006834FDD06433FDD06837FD06C067E050
:101A2000C6010E94C70C18E001C01BE04C2F612FBB
:101A3000C6010E94C70C61E0610F402FC6010E94E1
:101A4000C70C62E0610F4D2FC601DF91CF911F914E
:101A50000F91EF90DF90CF900C94C70CCF93DF9352
:101A6000EC0168E670E08BEB92E00E94401360E0CE
:101A70008BEB92E00E94ED128BEB92E00E94BF1381
:101A8000882319F08093A5023CC047E050E068E647
:101A900070E08BEB92E00E94BC138BEB92E00E9413
:101AA0009C128F770E948F0C88838BEB92E00E94B0
:101AB0009C120E948F0C89838BEB92E00E949C12F7
:101AC0008F7B0E948F0C8A838BEB92E00E949C128A
:101AD0008B838BEB92E00E949C120E948F0C8C8374
:101AE0008BEB92E00E949C128F770E948F0C8D836B
:101AF0008BEB92E00E949C120E948F0C825E8E8380
:101B000080E0DF91CF910895CF93DF93CDB7DEB71B
:101B100027970FB6F894DEBF0FBECDBFCE0101965A
:101B20000E942E0D811105C0CE0101960E94CC119C
:101B300003C060E070E0CB0127960FB6F894DEBFDB
:101B40000FBECDBFDF91CF910895FF920F931F93EA
:101B5000CF93DF93C62FF42E052F122F68E670E087
:101B60008BEB92E00E9440136C2F8BEB92E00E9473
:101B7000ED128BEB92E00E94BF13811116C0412F32
:101B800068E68BEB92E00E94B913CF2DD02FCE01E7
:101B9000810F911D8C01C017D10731F08BEB92E0C2
:101BA0000E949C128993F7CF80E0DF91CF911F9123
:101BB0000F91FF900895CF93DF931F92CDB7DEB7BB
:101BC00021E0AE014F5F5F4F0E94A50D89810F900C
:101BD000DF91CF910895FF920F931F93CF93DF93DF
:101BE0008C01EB0168E670E08BEB92E00E94401301
:101BF00060E08BEB92E00E94ED1228818AE0F82EE3
:101C0000822F6F2D0E94E815682F660F860F880FB0
:101C1000682F620F8BEB92E00E94ED122981822FD8
:101C20006F2D0E94E815682F660F860F880F682FAA
:101C3000620F8BEB92E00E94ED122A81822F6F2DB2
:101C40000E94E815682F660F860F880F682F620FB5
:101C50008BEB92E00E94ED126B818BEB92E00E9485
:101C6000ED122C81822F6F2D0E94E815682F660FD0
:101C7000860F880F682F620F8BEB92E00E94ED12A7
:101C80002D81822F6F2D0E94E815682F660F860F19
:101C9000880F682F620F8BEB92E00E94ED122E816D
:101CA0002E51822F6F2D0E94E815682F660F680F46
:101CB000660F620F8BEB92E00E94ED128BEB92E0CD
:101CC0000E94BF13C82F6FE0C8010E94DB0D482F90
:101CD0004F776FE0C8010E94C70C8C2FDF91CF9126
:101CE0001F910F91FF9008950F931F93CF93DF9350
:101CF000CDB7DEB727970FB6F894DEBF0FBECDBFC6
:101D00008C01CB01BA01AE014F5F5F4F0E949D1065
:101D1000BE016F5F7F4FC8010E94EB0D27960FB683
:101D2000F894DEBF0FBECDBFDF91CF911F910F9111
:101D300008950F931F93CF93DF938C01C62FD42F59
:101D40006EE00E94DB0DC15021E030E001C0220FA7
:101D5000CA95EAF7DD2319F0482F422B03C02095DE
:101D6000422F48236EE0C801DF91CF911F910F9160
:101D70000C94C70C0F931F93CF938C01C62F6FE069
:101D80000E94DB0DC15021E030E001C0220FCA9556
:101D9000EAF7982F922349F02095422F48236FE0CD
:101DA000C8010E94C70C81E001C080E0CF911F9163
:101DB0000F9108950F931F93CF938C01C62F6EE060
:101DC0000E94DB0D482FC43010F0446006C0437EF3
:101DD00088E0C89FB0011124462B6EE0C801CF9166
:101DE0001F910F910C94C70CCF93DF93EC0160E02F
:101DF0008E810E94600C81E090E00E94980B61E06F
:101E00008E810E94600C81E090E00E94980B60E05F
:101E10008E810E94600C84E690E0DF91CF910C945B
:101E2000980BCF92DF92EF92FF920F931F93CF9375
:101E3000DF936C017C0187E0E80EF11CC0E0D0E08C
:101E4000062F10E0B8010C2E02C0759567950A9414
:101E5000E2F76170F70181917F010E94600C219689
:101E6000C430D10579F7C601DF91CF911F910F9151
:101E7000FF90EF90DF90CF900C94F40ECF92DF9212
:101E8000EF92FF920F931F93CF93DF936C017C012E
:101E900087E0E80EF11CC0E0D0E0062F10E0B801AA
:101EA0000C2E02C0759567950A94E2F76170F701F0
:101EB00081917F010E94600C2196C830D10579F78D
:101EC000C601DF91CF911F910F91FF90EF90DF90AE
:101ED000CF900C94F40E1F93CF93DF93EC01162F49
:101EE000642F8C810E94600C8D818F3F19F060E01F
:101EF0000E94600C8F85612F84FF06C0CE01DF91A8
:101F0000CF911F910C943E0F70E084E0759567951A
:101F10008A95E1F7CE010E94110F612FCE01DF916A
:101F2000CF911F910C94110F40E00C946B0F61E066
:101F30000E94940F80ED97E00C94980BFC014430C4
:101F400008F043E08389481710F04FEF480FDF0196
:101F5000A40FB11D54969C91690F6068CF010C9439
:101F6000940FFC016089262F2460208B6C600C94F8
:101F7000940FEF92FF920F931F93CF93DF93EC0197
:101F8000423018F08F8588608F874B8B1C8A80E4E5
:101F90008D8B6E8B70E0605C7F4F6F8B222329F0FE
:101FA000413019F48F8584608F8761E08C810E94B5
:101FB000240C8D818F3F19F061E00E94240C61E0B8
:101FC0008E810E94240C7E0187E0E80EF11C00E067
:101FD00010E08F8584FD03C084E090E002C088E0BB
:101FE00090E0081719074CF461E0F70181917F0137
:101FF0000E94240C0F5F1F4FECCF80E593EC0E94F2
:10200000980B60E08C810E94600C60E08E810E94E1
:10201000600C8D818F3F19F060E00E94600C6F852D
:1020200064FD1DC063E0CE010E94110F84E991E1BF
:102030000E94980B63E0CE010E94110F84E991E1A8
:102040000E94980B63E0CE010E94110F86E990E098
:102050000E94980B62E0CE010E94110F16C06062D0
:10206000CE010E94940F84E991E10E94980B6F8544
:102070006062CE010E94940F86E990E00E94980B66
:102080006F856062CE010E94940F6F856062CE0101
:102090000E94940F84E0888BCE010E94B10FCE0184
:1020A0000E94970F82E0898B66E0CE01DF91CF918D
:1020B0001F910F91FF90EF900C94940FCF92EF929D
:1020C0000F93FC011382128283EA91E09183808353
:1020D00064838FEF8583468327830087E186C286EA
:1020E0001386148615861686178620E041E060E187
:1020F000CF010F91EF90CF900C94B90F41E00E9467
:102100006B0F81E090E0089523E0829FC0011124CD
:10211000A6EAB2E020E030E0FC01E20FF31FE65156
:10212000FF4FE491ED932F5F3F4F23303105A1F72F
:102130001092A90286EA92E008956F927F928F92A0
:102140009F92AF92BF92CF92DF92EF92FF920F9346
:102150001F93CF93DF936B017C01EA018CE3882E00
:10216000912CA12CB12CC701B601A50194010E94AC
:1021700008166883CA01B901A50194010E940816D6
:102180006983C701B60120E13EE040E050E00E94D3
:102190000816CA01B90128E130E040E050E00E9491
:1021A00008166A83C701B60120E831E541E050E036
:1021B0000E94081669017A01CA01B9016C5F7F4F5C
:1021C0008F4F9F4F27E030E040E050E00E9408161C
:1021D0006F5F6B83812C912C540140E094E6692E53
:1021E000712C00E911E0242F30E02E54384FF90112
:1021F000E370FF27309789F4C901B3010E94F415F9
:10220000892B31F4C901B8010E94F415892B29F4F6
:102210008EE691E0A0E0B0E004C08DE691E0A0E0A1
:10222000B0E0880E991EAA1EBB1ED501C401AA27C4
:10223000BB27C816D906EA06FB0610F04F5FD3CFBE
:102240004E83309799F4C90164E670E00E94F4155A
:10225000892B39F4C90160E971E00E94F415892BDA
:1022600029F48EE691E0A0E0B0E004C08DE691E0B4
:10227000A0E0B0E0881A990AAA0ABB0AC818D908CF
:10228000EA08FB08C90164E670E00E94F4158C01BD
:10229000C90160E971E00E94F415ABEAB1E020E009
:1022A000213041F4309751F40115110529F40097BC
:1022B00029F402C04C9103C04DE101C04CE150E053
:1022C00060E070E0C416D506E606F70640F0C41AD2
:1022D000D50AE60AF70A2F5F11962C3009F72F5F0F
:1022E0002D83C394CC82DF91CF911F910F91FF90EA
:1022F000EF90DF90CF90BF90AF909F908F907F90A6
:102300006F900895CF92DF92EF92FF92C090B0024B
:10231000D090B102E090B202F090B302C616D70698
:10232000E806F90671F06B017C0144EB52E00E9473
:102330009D10C092B002D092B102E092B202F0922F
:10234000B302FF90EF90DF90CF9008950E9482112A
:102350008091B60290E008950E9482118091B502AA
:1023600090E008950E9482118091B40290E0089557
:102370000E9482118091B80290E008950E9482111B
:102380008091B90290E008950E9482118091BA0272
:1023900090E08E54984F08954F925F926F927F9283
:1023A0008F929F92AF92BF92CF92DF92EF92FF9265
:1023B0000F931F93CF93DF93FC011681A12FB0E001
:1023C00020E833E341EE51E00E943F164B015C01EF
:1023D000C2EBD7E09D0104E610E080E9E82EFF247F
:1023E000F394CE01825B974082179307D4F4CE0119
:1023F00083709927892B99F4CE01B8010E94F415B6
:10240000892B31F4CE01B7010E94F415892B39F4E0
:1024100080E8880E81E5981E81E0A81EB11C2196F7
:10242000E0CF4580512C2E54384FC90164E670E04E
:102430000E94F4157C01C90160E971E00E94F41565
:102440006C010BEA11E0C1E0D0E03901A3E06A229F
:102450007724C415D50534F5C230D10589F461144B
:10246000710471F4E114F10419F4C114D10441F4BC
:10247000B0E88B0EBBE39B1EB6E2AB1EB11C0EC0D8
:10248000D8018C91A82FB0E020E831E541E050E080
:102490000E943F16860E971EA81EB91E21960F5F3A
:1024A0001F4FD7CF4181228130E0A0E1BEE00E94E2
:1024B00030166B017C01242F30E0ACE3B0E00E94C9
:1024C0003016DC01CB018C0D9D1DAE1DBF1D208182
:1024D0006C017D01C20ED11CE11CF11CA481B0E095
:1024E000119720E831E541E050E00E944A16DC01F6
:1024F000CB018C0D9D1DAE1DBF1DBC01CD01680D16
:10250000791D8A1D9B1DDF91CF911F910F91FF9027
:10251000EF90DF90CF90BF90AF909F908F907F9083
:102520006F905F904F9008958091EB0290E0209122
:10253000EC02821B910908959091EC028091EB02CC
:10254000981750F4E92FF0E0E351FD4F208130E07F
:102550009F5F9093EC0202C02FEF3FEFC9010895F7
:10256000E091EC028091EB02E81730F4F0E0E351E7
:10257000FD4F808190E008958FEF9FEF08950895BB
:10258000CF92DF92EF92FF920F931F93CF93DF933F
:102590007C01CB018A012091C702222389F0EB0143
:1025A0006B01C40ED51ECC15DD0569F06991D7010C
:1025B000ED91FC910190F081E02DC7010995F3CFD9
:1025C000642F0E948314C801DF91CF911F910F9156
:1025D000FF90EF90DF90CF900895CF93DF931F92FD
:1025E000CDB7DEB769832091C7022223D1F02091B5
:1025F000C802203240F021E030E0FC013383228326
:1026000080E090E015C08091C902E82FF0E0E65329
:10261000FD4F998190838F5F8093C9028093C80298
:1026200005C061E0CE0101960E94831481E090E034
:102630000F90DF91CF910895FC011382128288EEF2
:1026400093E0A0E0B0E084839583A683B7838BEB0F
:1026500091E09183808308951092EC021092EB0236
:102660001092C9021092C8020C94C71381E08093A3
:10267000C7026093EA021092C9021092C80208953C
:102680000C9436130F93062F21E04091C8026AEC98
:1026900072E08091EA020E942D141092C9021092F9
:1026A000C8021092C7020F9108954F925F926F92E5
:1026B0007F92AF92BF92CF92EF92FF920F931F93B0
:1026C000CF93DF935C01F62ED42F28013901EE2041
:1026D00021F10E943613CE2DC43008F0C3E0C15062
:1026E000C0F028E0C29FC0011124A301920104C0E0
:1026F00056954795379527958A95D2F7CA01B9011E
:10270000D501ED91FC910190F081E02DC501099575
:10271000E6CF60E0C5010E9442134D2FD13208F090
:1027200040E22C2D6DEE72E08F2D0E94E513109289
:10273000EC028093EB02DF91CF911F910F91FF90FC
:10274000EF90CF90BF90AF907F906F905F904F9041
:102750000895CF92EF920F931F93C22EE12C00E0C9
:1027600010E098010E9455131F910F91EF90CF90A8
:10277000089521E00C94A91321E00C94A91361E0C1
:102780000C9442138BEB92E00C941C13089510925E
:102790007A0381E0809378031092770361E082E10D
:1027A0000E94600C61E083E10E94600CE9EBF0E0C4
:1027B00080818E7F808380818D7F808388E4809379
:1027C000B80085E48093BC000895413208F043C00E
:1027D00090917A039111FCCF91E090937A0320932A
:1027E00078032FEF20930D0310925203240F2093B0
:1027F00051039093790390917903880F892B8093EB
:10280000790380917703813061F41092770380918E
:1028100079038093BB008091BC0083FDF8CF85ECE9
:1028200001C085EE8093BC0080917A038130E1F392
:1028300080915203841710F440915203A3E5B3E052
:10284000962FFB018E2F891B841718F48D9181938D
:10285000F9CF842F089580E008950F93413208F056
:102860004AC090917A039111FCCF32E030937A0301
:10287000009378033FEF30930D031092520340937F
:102880005103562FA3E5B3E0FB013E2F351B341750
:1028900018F431913D93F9CF109279033091790377
:1028A000880F832B8093790380917703813061F4C3
:1028B00010927703809179038093BB008091BC00D4
:1028C00083FDF8CF85EC01C085EE8093BC00222308
:1028D00021F080917A038230D1F380910D038F3FF4
:1028E00079F080910D03803241F080910D038033A7
:1028F00031F094E005C091E003C092E001C093E0A4
:10290000892F0F91089540912F03262F30E0240F37
:10291000311D21323105DCF420917A032430C9F4D1
:10292000FC0180E090E0861758F430912F0321914C
:10293000DC01AF5CBC4FA30FB11D2C930196F3CF0C
:1029400080912F03680F60932F0380E0089581E04A
:10295000089582E0089585ED8093BC008091BC00CD
:1029600084FDFCCF10927A03089585EC8093BC001F
:1029700010927A0308951F920F920FB60F921124AE
:102980002F933F934F935F936F937F938F939F9377
:10299000AF93BF93EF93FF938091B900887F803608
:1029A00009F49EC078F5883209F45DC090F4803156
:1029B00009F456C038F4882309F4F5C0883009F4C6
:1029C0004FC0F5C0883109F44EC0803209F45FC0B1
:1029D000EEC0803409F46AC058F4803309F457C05B
:1029E000883309F0E4C080930D030E94B514DFC062
:1029F000803509F44FC0883509F45DC0883409F08A
:102A0000D6C0D3C0883909F4C4C0A8F4883709F403
:102A100067C038F4883609F463C0803709F460C0B1
:102A2000C6C0883809F4B5C0803909F45FC0803861
:102A300009F0BDC05BC0803B09F483C038F4803A24
:102A400009F466C0883A09F47CC0B1C0803C09F43E
:102A5000A4C0883C09F4A1C0883B09F487C0A7C082
:102A60008091790310C0909152038091510398177F
:102A700070F5E091520381E08E0F80935203F0E0F5
:102A8000ED5AFC4F80818093BB0085EC83C080931E
:102A90000D038BC0E091520381E08E0F80935203AF
:102AA0008091BB00F0E0ED5AFC4F8083909152037F
:102AB000809151036BC0E091520381E08E0F8093AF
:102AC00052038091BB00F0E0ED5AFC4F808380916F
:102AD000780381116AC081E08093770384EA5EC045
:102AE00083E080937A0310920E03CFCF80910E0380
:102AF000803208F04EC0E0910E0381E08E0F80938B
:102B00000E038091BB00F0E0E15FFC4F8083BDCFFE
:102B10000E94B51480910E03803230F4E0910E03D0
:102B2000F0E0E15FFC4F108260910E0370E0E091F5
:102B30007303F09174038FE093E0099510920E03F4
:102B400036C084E080937A031092300310922F03F2
:102B5000E0917503F0917603099580912F0381111F
:102B600005C081E080932F0310923103E091300380
:102B700081E08E0F80933003F0E0EF5CFC4F8081AA
:102B80008093BB009091300380912F03981708F435
:102B90007CCF85E88093BC000AC085EC8093BC00A4
:102BA00010927A0304C010920D030E94AB14FF919F
:102BB000EF91BF91AF919F918F917F916F915F91B5
:102BC0004F913F912F910F900FBE0F901F9018952E
:102BD000991B79E004C0991F961708F0961B881F6F
:102BE0007A95C9F78095089597FB072E16F40094FF
:102BF00007D077FD09D00E94521607FC05D03EF49D
:102C0000909581959F4F0895709561957F4F089598
:102C1000A1E21A2EAA1BBB1BFD010DC0AA1FBB1FE0
:102C2000EE1FFF1FA217B307E407F50720F0A21B52
:102C3000B30BE40BF50B661F771F881F991F1A94BF
:102C400069F760957095809590959B01AC01BD01E9
:102C5000CF010895EE0FFF1F0590F491E02D099428
:102C6000A29FB001B39FC001A39F700D811D1124CD
:102C7000911DB29F700D811D1124911D08950E9418
:102C80003016A59F900DB49F900DA49F800D911DAF
:102C900011240895B7FF0C943F160E943F16821B23
:102CA000930B0895AA1BBB1B51E107C0AA1FBB1FB2
:102CB000A617B70710F0A61BB70B881F991F5A95C8
:102CC000A9F780959095BC01CD010895F999FECFA3
:102CD00092BD81BDF89A992780B50895262FF9995C
:102CE000FECF1FBA92BD81BD20BD0FB6F894FA9AEF
:0C2CF000F99A0FBE01960895F894FFCFEA
:102CFC00077E0A7E0A0130004B6C6F6B6B65736C40
:102D0C00616574003A00536B696674204B6C6F6B91
:102D1C006B65736C657400446F6572656E206161E0
:102D2C00626E657200536B6966742041626E696EE7
:102D3C00677374696400546573742069733A200076
:102D4C0043757272656E742074696D652069733A8F
:102D5C002000202D2D3E20416C61726D2031210010
:102D6C00202D2D3E20416C61726D2032210000001F
:102D7C00000036088D0906087D08D807F207E4071D
:102D8C000D0A006E616E00696E66006F766600005B
:102D9C000000007E108D09040907091F1C1F1E1F4F
:102DAC001E1F1F1E1F1E1F00000000ED12C012046C
:0A2DBC0009BF1294129C12B012001D
:00000001FF
